{
  "_format": "hh-sol-artifact-1",
  "contractName": "EventManagerFactory",
  "sourceName": "contracts/EventManagerFactory.sol",
  "abi": [
    {
      "inputs": [
        {
          "internalType": "address",
          "name": "paymentTokenAddress",
          "type": "address"
        },
        {
          "internalType": "string",
          "name": "_NftTokenName",
          "type": "string"
        },
        {
          "internalType": "string",
          "name": "_NftSymbol",
          "type": "string"
        },
        {
          "internalType": "string",
          "name": "_name",
          "type": "string"
        },
        {
          "internalType": "string",
          "name": "_description",
          "type": "string"
        },
        {
          "internalType": "string",
          "name": "_venue",
          "type": "string"
        },
        {
          "internalType": "string",
          "name": "_image",
          "type": "string"
        },
        {
          "internalType": "uint256",
          "name": "_startDate",
          "type": "uint256"
        },
        {
          "internalType": "uint256",
          "name": "_endDate",
          "type": "uint256"
        },
        {
          "internalType": "uint16",
          "name": "_totalTicketAvailable",
          "type": "uint16"
        }
      ],
      "name": "createEvent",
      "outputs": [
        {
          "internalType": "address",
          "name": "",
          "type": "address"
        }
      ],
      "stateMutability": "nonpayable",
      "type": "function"
    },
    {
      "inputs": [
        {
          "internalType": "address",
          "name": "",
          "type": "address"
        },
        {
          "internalType": "uint256",
          "name": "",
          "type": "uint256"
        }
      ],
      "name": "eventOrganizers",
      "outputs": [
        {
          "internalType": "address",
          "name": "",
          "type": "address"
        }
      ],
      "stateMutability": "view",
      "type": "function"
    },
    {
      "inputs": [
        {
          "internalType": "uint256",
          "name": "",
          "type": "uint256"
        }
      ],
      "name": "events",
      "outputs": [
        {
          "internalType": "address",
          "name": "",
          "type": "address"
        }
      ],
      "stateMutability": "view",
      "type": "function"
    }
  ],
  "bytecode": "0x608060405234801561001057600080fd5b50613708806100206000396000f3fe60806040523480156200001157600080fd5b5060043610620000465760003560e01c80630b791430146200004b5780631a46a7db146200007e5780632ce00f311462000095575b600080fd5b620000626200005c366004620001ee565b620000ac565b6040516001600160a01b03909116815260200160405180910390f35b620000626200008f36600462000225565b620000d7565b62000062620000a636600462000310565b62000110565b60008181548110620000bd57600080fd5b6000918252602090912001546001600160a01b0316905081565b60016020528160005260406000208181548110620000f457600080fd5b6000918252602090912001546001600160a01b03169150829050565b600080338c8c8c8c8c8c8c8c8c8c6040516200012c90620001e0565b620001429b9a999897969594939291906200049c565b604051809103906000f0801580156200015f573d6000803e3d6000fd5b5060008054600181810183557f290decd9548b62a8d60345a988386fc84ba6bc95484008f6362f93160ef3e56390910180546001600160a01b0385166001600160a01b0319918216811790925533845260208381526040852080549485018155855290932090910180549092161790559150509a9950505050505050505050565b613168806200056b83390190565b6000602082840312156200020157600080fd5b5035919050565b80356001600160a01b03811681146200022057600080fd5b919050565b600080604083850312156200023957600080fd5b620002448362000208565b946020939093013593505050565b634e487b7160e01b600052604160045260246000fd5b600082601f8301126200027a57600080fd5b813567ffffffffffffffff8082111562000298576200029862000252565b604051601f8301601f19908116603f01168101908282118183101715620002c357620002c362000252565b81604052838152866020858801011115620002dd57600080fd5b836020870160208301376000602085830101528094505050505092915050565b803561ffff811681146200022057600080fd5b6000806000806000806000806000806101408b8d0312156200033157600080fd5b6200033c8b62000208565b995060208b013567ffffffffffffffff808211156200035a57600080fd5b620003688e838f0162000268565b9a5060408d01359150808211156200037f57600080fd5b6200038d8e838f0162000268565b995060608d0135915080821115620003a457600080fd5b620003b28e838f0162000268565b985060808d0135915080821115620003c957600080fd5b620003d78e838f0162000268565b975060a08d0135915080821115620003ee57600080fd5b620003fc8e838f0162000268565b965060c08d01359150808211156200041357600080fd5b50620004228d828e0162000268565b94505060e08b013592506101008b01359150620004436101208c01620002fd565b90509295989b9194979a5092959850565b6000815180845260005b818110156200047c576020818501810151868301820152016200045e565b506000602082860101526020601f19601f83011685010191505092915050565b6001600160a01b038c811682528b1660208201526000610160806040840152620004c98184018d62000454565b90508281036060840152620004df818c62000454565b90508281036080840152620004f5818b62000454565b905082810360a08401526200050b818a62000454565b905082810360c084015262000521818962000454565b905082810360e084015262000537818862000454565b91505084610100830152836101208301526200055a61014083018461ffff169052565b9c9b50505050505050505050505056fe60806040526001600e553480156200001657600080fd5b506040516200316838038062003168833981016040819052620000399162000501565b8888600062000049838262000710565b50600162000058828262000710565b5050601080546001600160a01b0319166001600160a01b038d811691909117909155600f805462010000600160b01b03191662010000928f169290920291909117905550620000ad87878787878787620000be565b50505050505050505050506200083b565b6000875111620001085760405162461bcd60e51b815260206004820152601060248201526f456e746572204576656e74204e616d6560801b60448201526064015b60405180910390fd5b60008651116200015b5760405162461bcd60e51b815260206004820152601760248201527f456e746572204576656e74204465736372697074696f6e0000000000000000006044820152606401620000ff565b6000855111620001a25760405162461bcd60e51b8152602060048201526011602482015270456e746572204576656e742056656e756560781b6044820152606401620000ff565b6000845111620001e95760405162461bcd60e51b8152602060048201526011602482015270456e746572204576656e7420496d61676560781b6044820152606401620000ff565b600083116200023b5760405162461bcd60e51b815260206004820152601860248201527f456e74657220612076616c6964205374617274204461746500000000000000006044820152606401620000ff565b600082116200028d5760405162461bcd60e51b815260206004820152601660248201527f456e74657220612076616c696420456e642044617465000000000000000000006044820152606401620000ff565b81831115620002f65760405162461bcd60e51b815260206004820152602e60248201527f53746172742044617465206d757374206265206265666f7265206f722065717560448201526d616c20746f20456e64204461746560901b6064820152608401620000ff565b600d546000906200030d9061ffff166001620007f2565b61ffff8116600090815260076020526040902080546001600160a01b0319163317815590915060018101620003438a8262000710565b506002810162000354898262000710565b506003810162000365888262000710565b506004810162000376878262000710565b50600581018590556006810184905560078101805462ffffff191661ffff85811691909117909155600d8054909116906000620003b38362000817565b82546101009290920a61ffff818102199093169183160217909155600d54604051911691507fd86523d1de83ae23812abe03df6dc98f8552b48cb9c8497734e362544ecdcad190600090a2505050505050505050565b80516001600160a01b03811681146200042157600080fd5b919050565b634e487b7160e01b600052604160045260246000fd5b600082601f8301126200044e57600080fd5b81516001600160401b03808211156200046b576200046b62000426565b604051601f8301601f19908116603f0116810190828211818310171562000496576200049662000426565b8160405283815260209250866020858801011115620004b457600080fd5b600091505b83821015620004d85785820183015181830184015290820190620004b9565b6000602085830101528094505050505092915050565b805161ffff811681146200042157600080fd5b60008060008060008060008060008060006101608c8e0312156200052457600080fd5b6200052f8c62000409565b9a506200053f60208d0162000409565b60408d0151909a506001600160401b038111156200055c57600080fd5b6200056a8e828f016200043c565b60608e0151909a5090506001600160401b038111156200058957600080fd5b620005978e828f016200043c565b60808e015190995090506001600160401b03811115620005b657600080fd5b620005c48e828f016200043c565b60a08e015190985090506001600160401b03811115620005e357600080fd5b620005f18e828f016200043c565b60c08e015190975090506001600160401b038111156200061057600080fd5b6200061e8e828f016200043c565b60e08e015190965090506001600160401b038111156200063d57600080fd5b6200064b8e828f016200043c565b9450506101008c015192506101208c015191506200066d6101408d01620004ee565b90509295989b509295989b9093969950565b600181811c908216806200069457607f821691505b602082108103620006b557634e487b7160e01b600052602260045260246000fd5b50919050565b601f8211156200070b576000816000526020600020601f850160051c81016020861015620006e65750805b601f850160051c820191505b818110156200070757828155600101620006f2565b5050505b505050565b81516001600160401b038111156200072c576200072c62000426565b62000744816200073d84546200067f565b84620006bb565b602080601f8311600181146200077c5760008415620007635750858301515b600019600386901b1c1916600185901b17855562000707565b600085815260208120601f198616915b82811015620007ad578886015182559484019460019091019084016200078c565b5085821015620007cc5787850151600019600388901b60f8161c191681555b5050505050600190811b01905550565b634e487b7160e01b600052601160045260246000fd5b61ffff818116838216019080821115620008105762000810620007dc565b5092915050565b600061ffff808316818103620008315762000831620007dc565b6001019392505050565b61291d806200084b6000396000f3fe608060405234801561001057600080fd5b50600436106101a95760003560e01c80636031a52f116100f9578063a22cb46511610097578063e609019311610071578063e6090193146103aa578063e985e9c5146103c0578063f498f3d8146103d3578063fc0c546a146103e757600080fd5b8063a22cb46514610371578063b88d4fde14610384578063c87b56dd1461039757600080fd5b806370a08231116100d357806370a082311461032757806371be2e4a1461033a5780638858287b1461035b57806395d89b411461036957600080fd5b80636031a52f146102e457806361203265146102fb5780636352211e1461031457600080fd5b806311a18ecf11610166578063428596571161014057806342859657146102985780634b548d71146102ab5780634eefee34146102be5780635b7baf64146102d157600080fd5b806311a18ecf1461025f57806323b872dd1461027257806342842e0e1461028557600080fd5b806301ffc9a7146101ae578063054ae7df146101d657806305750a8a146101f757806306fdde031461020c578063081812fc14610221578063095ea7b31461024c575b600080fd5b6101c16101bc366004612159565b6103fa565b60405190151581526020015b60405180910390f35b6101e96101e4366004612176565b610425565b6040516101cd9291906121df565b61020a610205366004612214565b610641565b005b610214610820565b6040516101cd919061222f565b61023461022f366004612176565b6108b2565b6040516001600160a01b0390911681526020016101cd565b61020a61025a366004612242565b6108db565b61020a61026d366004612318565b6108ea565b61020a6102803660046123b9565b610b76565b61020a6102933660046123b9565b610c01565b61020a6102a6366004612214565b610c21565b61020a6102b9366004612407565b610dcc565b61020a6102cc366004612485565b611061565b61020a6102df366004612176565b6114e8565b6102ed600e5481565b6040519081526020016101cd565b600f54610234906201000090046001600160a01b031681565b610234610322366004612176565b61175f565b6102ed610335366004612214565b61176a565b600d546103489061ffff1681565b60405161ffff90911681526020016101cd565b600f546103489061ffff1681565b6102146117b2565b61020a61037f3660046124ae565b6117c1565b61020a6103923660046124e5565b6117cc565b6102146103a5366004612176565b6117e3565b600d5461034890640100000000900461ffff1681565b6101c16103ce366004612555565b6118f4565b600d546103489062010000900461ffff1681565b601054610234906001600160a01b031681565b60006001600160e01b03198216632483248360e11b148061041f575061041f82611922565b92915050565b6000818152600a6020526040812054606090820361047e5760405162461bcd60e51b8152602060048201526011602482015270125b9d985b1a5908151a58dad95d081251607a1b60448201526064015b60405180910390fd5b336104888461175f565b6001600160a01b0316146104de5760405162461bcd60e51b815260206004820152601a60248201527f4164647265737320646f6573206e6f742068617665204e46542e0000000000006044820152606401610475565b6000838152600a60209081526040808320815160c08101835281548152600182015461ffff808216838701819052620100009092041682850152600283015460608301526003909201546001600160a01b0381166080830152600160a01b900460ff16151560a0820152908452600890925291829020915190917f7fd23f6ad00d3f0f5eed2692b87e05840d25373c796196e43bd3783bac1bfd099161058791879133906125c2565b60405180910390a160208082015161ffff166000908152600890915260409020805485919081906105b790612588565b80601f01602080910402602001604051908101604052809291908181526020018280546105e390612588565b80156106305780601f1061060557610100808354040283529160200191610630565b820191906000526020600020905b81548152906001019060200180831161061357829003601f168201915b505050505090509250925050915091565b600f546201000090046001600160a01b031633146106715760405162461bcd60e51b815260040161047590612668565b6001600160a01b0381166000908152600b6020526040812054600160a01b900461ffff1690036106d65760405162461bcd60e51b815260206004820152601060248201526f15995b991bdc88139bdd08119bdd5b9960821b6044820152606401610475565b6001600160a01b0381166000908152600b602052604090206001600582015462010000900460ff16600181111561070f5761070f612690565b036107505760405162461bcd60e51b815260206004820152601160248201527015995b9bd91c8815195c9b5a5b985d1959607a1b6044820152606401610475565b60058101805461ffff1916610101179055600481015480156107e657601054825460405163a9059cbb60e01b81526001600160a01b0391821660048201526024810184905291169063a9059cbb906044016020604051808303816000875af11580156107c0573d6000803e3d6000fd5b505050506040513d601f19601f820116820180604052508101906107e491906126a6565b505b604051600181527f311a21906e4d2a86992f4f42d9fec95ba3a246d77232bf4a2ffba6e8fc577b55906020015b60405180910390a1505050565b60606000805461082f90612588565b80601f016020809104026020016040519081016040528092919081815260200182805461085b90612588565b80156108a85780601f1061087d576101008083540402835291602001916108a8565b820191906000526020600020905b81548152906001019060200180831161088b57829003601f168201915b5050505050905090565b60006108bd82611972565b506000828152600460205260409020546001600160a01b031661041f565b6108e68282336119ab565b5050565b600f546201000090046001600160a01b0316331461091a5760405162461bcd60e51b815260040161047590612668565b60008451116109625760405162461bcd60e51b815260206004820152601460248201527356656e646f72206e616d6520697320656d70747960601b6044820152606401610475565b60008351116109ab5760405162461bcd60e51b815260206004820152601560248201527456656e646f7220696d61676520697320656d70747960581b6044820152606401610475565b6000825111610a085760405162461bcd60e51b815260206004820152602360248201527f56656e646f722073657276696365206465736372697074696f6e20697320656d60448201526270747960e81b6064820152608401610475565b600f54600090610a1d9061ffff1660016126d9565b6001600160a01b0387166000908152600b60205260409020805461ffff60a01b1916600160a01b61ffff84160217815590915060018101610a5e878261274b565b5060028101610a6d868261274b565b5060038101610a7c858261274b565b506004810183905580546001600160a01b0319166001600160a01b03881617815560058101805462ff000019169055600d5461ffff9081166000908152600c6020908152604082208054600181018255908352908220601082040180548685166002600f948516026101000a9081029086021990911617905580549092169190610b058361280b565b91906101000a81548161ffff021916908361ffff160217905550507fbd85166b3c4c7452aada3e67ba7e664ec7aec273f4179065eb8fd79ece9f3b9f8784604051610b659291906001600160a01b03929092168252602082015260400190565b60405180910390a150505050505050565b6001600160a01b038216610ba057604051633250574960e11b815260006004820152602401610475565b6000610bad8383336119b8565b9050836001600160a01b0316816001600160a01b031614610bfb576040516364283d7b60e01b81526001600160a01b0380861660048301526024820184905282166044820152606401610475565b50505050565b610c1c838383604051806020016040528060008152506117cc565b505050565b600f546201000090046001600160a01b03163314610c515760405162461bcd60e51b815260040161047590612668565b6001600160a01b0381166000908152600b6020526040812054600160a01b900461ffff169003610cb65760405162461bcd60e51b815260206004820152601060248201526f15995b991bdc88139bdd08119bdd5b9960821b6044820152606401610475565b6001600160a01b0381166000908152600b602052604090206005810154610100900460ff1615610d1f5760405162461bcd60e51b81526020600482015260146024820152732b32b73237b91020a63932b0b23c902830b4b21760611b6044820152606401610475565b600581015460ff1615610d745760405162461bcd60e51b815260206004820152601960248201527f56656e6f6472205365727669636520436f6e6669726d65642e000000000000006044820152606401610475565b60058101805462ff00001916620100001790558054604051600160a01b90910461ffff1681527f102acbfce99771dfe1e691dba311e5c919e33a8c7d9d097b390595b7496dda9b906020015b60405180910390a15050565b6000845111610e1d5760405162461bcd60e51b815260206004820152601760248201527f5469636b6574206e616d652069732072657175697265640000000000000000006044820152606401610475565b60008261ffff1611610e885760405162461bcd60e51b815260206004820152602e60248201527f546f74616c207469636b65747320617661696c61626c65206d7573742062652060448201526d067726561746572207468616e20360941b6064820152608401610475565b6000815111610ed25760405162461bcd60e51b8152602060048201526016602482015275151a58dad95d08155492481a5cc81c995c5d5a5c995960521b6044820152606401610475565b600d54600090610eef908490640100000000900461ffff166126d9565b600d5461ffff908116600090815260076020819052604090912001549192509081169082161115610f625760405162461bcd60e51b815260206004820152601760248201527f4d6178206576656e742073697a652065786365656465640000000000000000006044820152606401610475565b600d805461ffff8084166401000000000265ffff00000000199092169190911791829055600091610f9c91620100009091041660016126d9565b61ffff8116600090815260086020526040902090915080610fbd888261274b565b506001810186905560038101610fd3858261274b565b506002818101805461ffff191661ffff88811691909117909155600d8054620100009004909116916110048361280b565b82546101009290920a61ffff818102199093169183160217909155604080518583168152602081018a9052918816908201527f5f6199a78bf978fcd63f660aa6bb9eb044077c994cb141c830d96362bd76711e9150606001610b65565b336110a05760405162461bcd60e51b815260206004820152600f60248201526e496e76616c6964204164647265737360881b6044820152606401610475565b61ffff8116600090815260086020526040812060030180546110c190612588565b9050116111025760405162461bcd60e51b815260206004820152600f60248201526e125b9d985b1a5908151a595c881251608a1b6044820152606401610475565b61ffff811660009081526008602052604080822081516080810190925280548290829061112e90612588565b80601f016020809104026020016040519081016040528092919081815260200182805461115a90612588565b80156111a75780601f1061117c576101008083540402835291602001916111a7565b820191906000526020600020905b81548152906001019060200180831161118a57829003601f168201915b505050918352505060018201546020820152600282015461ffff1660408201526003820180546060909201916111dc90612588565b80601f016020809104026020016040519081016040528092919081815260200182805461120890612588565b80156112555780601f1061122a57610100808354040283529160200191611255565b820191906000526020600020905b81548152906001019060200180831161123857829003601f168201915b5050509190925250505060208101516010546040516370a0823160e01b8152336004820152929350909182916001600160a01b0316906370a0823190602401602060405180830381865afa1580156112b1573d6000803e3d6000fd5b505050506040513d601f19601f820116820180604052508101906112d5919061282c565b10156113235760405162461bcd60e51b815260206004820152601a60248201527f496e73756666696369656e7420746f6b656e2062616c616e63650000000000006044820152606401610475565b6010546040516323b872dd60e01b8152336004820152306024820152604481018390526001600160a01b03909116906323b872dd906064016020604051808303816000875af115801561137a573d6000803e3d6000fd5b505050506040513d601f19601f8201168201806040525081019061139e91906126a6565b6113e25760405162461bcd60e51b8152602060048201526015602482015274151bdad95b881d1c985b9cd9995c8819985a5b1959605a1b6044820152606401610475565b600e80546000818152600a60205260408120600381018054336001600160a01b0319821681178355600d5460018501805488875563ffffffff191661ffff928316620100000261ffff191617918c16919091179055600284018890556001600160a81b031990911660ff60a01b199091161790558354929390929161146683612845565b91905055506114753383611ab1565b611483828560600151611acb565b61ffff851660009081526009602090815260409182902080546001600160a01b031916339081179091558251858152918201527f6606e4c8a88792ed4fd5159f9be235ca78e87fc1cbdc6158ea92d3ed3be9bf72910160405180910390a15050505050565b6003600d5461ffff166000908152600760208190526040909120015462010000900460ff16600381111561151e5761151e612690565b1461156b5760405162461bcd60e51b815260206004820152601860248201527f4576656e74206973207374696c6c206f6e2d676f696e672e00000000000000006044820152606401610475565b6000818152600a6020908152604091829020825160c08101845281548152600182015461ffff8082169483019490945262010000900490921692820192909252600282015460608201526003909101546001600160a01b03811660808301819052600160a01b90910460ff16151560a083015233146116225760405162461bcd60e51b8152602060048201526013602482015272139bdd081bdddb995c881bd9881d1a58dad95d606a1b6044820152606401610475565b8060a00151156116655760405162461bcd60e51b815260206004820152600e60248201526d151bdad95b881c99599d5b99195960921b6044820152606401610475565b606081015160105460405163a9059cbb60e01b8152336004820152602481018390526001600160a01b039091169063a9059cbb906044016020604051808303816000875af11580156116bb573d6000803e3d6000fd5b505050506040513d601f19601f820116820180604052508101906116df91906126a6565b6117215760405162461bcd60e51b8152602060048201526013602482015272151bdad95b881c99599d5b990819985a5b1959606a1b6044820152606401610475565b61172a83611b14565b604080518281523360208201527fd86f3d2d747d5d831df461fda7bf64b7d9d57ff4b8b3fe58836776cf90a6bda59101610813565b600061041f82611972565b60006001600160a01b038216611796576040516322718ad960e21b815260006004820152602401610475565b506001600160a01b031660009081526003602052604090205490565b60606001805461082f90612588565b6108e6338383611b4f565b6117d7848484610b76565b610bfb84848484611bee565b60606117ee82611972565b506000828152600660205260408120805461180890612588565b80601f016020809104026020016040519081016040528092919081815260200182805461183490612588565b80156118815780601f1061185657610100808354040283529160200191611881565b820191906000526020600020905b81548152906001019060200180831161186457829003601f168201915b50505050509050600061189f60408051602081019091526000815290565b905080516000036118b1575092915050565b8151156118e35780826040516020016118cb92919061285e565b60405160208183030381529060405292505050919050565b6118ec84611d17565b949350505050565b6001600160a01b03918216600090815260056020908152604080832093909416825291909152205460ff1690565b60006001600160e01b031982166380ac58cd60e01b148061195357506001600160e01b03198216635b5e139f60e01b145b8061041f57506301ffc9a760e01b6001600160e01b031983161461041f565b6000818152600260205260408120546001600160a01b03168061041f57604051637e27328960e01b815260048101849052602401610475565b610c1c8383836001611d8c565b6000828152600260205260408120546001600160a01b03908116908316156119e5576119e5818486611e92565b6001600160a01b03811615611a2357611a02600085600080611d8c565b6001600160a01b038116600090815260036020526040902080546000190190555b6001600160a01b03851615611a52576001600160a01b0385166000908152600360205260409020805460010190555b60008481526002602052604080822080546001600160a01b0319166001600160a01b0389811691821790925591518793918516917fddf252ad1be2c89b69c2b068fc378daa952ba7f163c4a11628f55a4df523b3ef91a4949350505050565b6108e6828260405180602001604052806000815250611ef6565b6000828152600660205260409020611ae3828261274b565b506040518281527ff8e1a15aba9398e019f0b49df1a4fde98ee17ae345cb5f6b5e2c27f5033e8ce790602001610dc0565b6000611b2360008360006119b8565b90506001600160a01b0381166108e657604051637e27328960e01b815260048101839052602401610475565b6001600160a01b038216611b8157604051630b61174360e31b81526001600160a01b0383166004820152602401610475565b6001600160a01b03838116600081815260056020908152604080832094871680845294825291829020805460ff191686151590811790915591519182527f17307eab39ab6107e8899845ad3d59bd9653f200f220920489ca2b5937696c31910160405180910390a3505050565b6001600160a01b0383163b15610bfb57604051630a85bd0160e11b81526001600160a01b0384169063150b7a0290611c3090339088908790879060040161288d565b6020604051808303816000875af1925050508015611c6b575060408051601f3d908101601f19168201909252611c68918101906128ca565b60015b611cd4573d808015611c99576040519150601f19603f3d011682016040523d82523d6000602084013e611c9e565b606091505b508051600003611ccc57604051633250574960e11b81526001600160a01b0385166004820152602401610475565b805181602001fd5b6001600160e01b03198116630a85bd0160e11b14611d1057604051633250574960e11b81526001600160a01b0385166004820152602401610475565b5050505050565b6060611d2282611972565b506000611d3a60408051602081019091526000815290565b90506000815111611d5a5760405180602001604052806000815250611d85565b80611d6484611f0d565b604051602001611d7592919061285e565b6040516020818303038152906040525b9392505050565b8080611da057506001600160a01b03821615155b15611e62576000611db084611972565b90506001600160a01b03831615801590611ddc5750826001600160a01b0316816001600160a01b031614155b8015611def5750611ded81846118f4565b155b15611e185760405163a9fbf51f60e01b81526001600160a01b0384166004820152602401610475565b8115611e605783856001600160a01b0316826001600160a01b03167f8c5be1e5ebec7d5bd14f71427d1e84f3dd0314c0f7b2291e5b200ac8c7c3b92560405160405180910390a45b505b5050600090815260046020526040902080546001600160a01b0319166001600160a01b0392909216919091179055565b611e9d838383611fa0565b610c1c576001600160a01b038316611ecb57604051637e27328960e01b815260048101829052602401610475565b60405163177e802f60e01b81526001600160a01b038316600482015260248101829052604401610475565b611f008383612003565b610c1c6000848484611bee565b60606000611f1a83612068565b600101905060008167ffffffffffffffff811115611f3a57611f3a61226c565b6040519080825280601f01601f191660200182016040528015611f64576020820181803683370190505b5090508181016020015b600019016f181899199a1a9b1b9c1cb0b131b232b360811b600a86061a8153600a8504945084611f6e57509392505050565b60006001600160a01b038316158015906118ec5750826001600160a01b0316846001600160a01b03161480611fda5750611fda84846118f4565b806118ec5750506000908152600460205260409020546001600160a01b03908116911614919050565b6001600160a01b03821661202d57604051633250574960e11b815260006004820152602401610475565b600061203b838360006119b8565b90506001600160a01b03811615610c1c576040516339e3563760e11b815260006004820152602401610475565b60008072184f03e93ff9f4daa797ed6e38ed64bf6a1f0160401b83106120a75772184f03e93ff9f4daa797ed6e38ed64bf6a1f0160401b830492506040015b6d04ee2d6d415b85acef810000000083106120d3576d04ee2d6d415b85acef8100000000830492506020015b662386f26fc1000083106120f157662386f26fc10000830492506010015b6305f5e1008310612109576305f5e100830492506008015b612710831061211d57612710830492506004015b6064831061212f576064830492506002015b600a831061041f5760010192915050565b6001600160e01b03198116811461215657600080fd5b50565b60006020828403121561216b57600080fd5b8135611d8581612140565b60006020828403121561218857600080fd5b5035919050565b60005b838110156121aa578181015183820152602001612192565b50506000910152565b600081518084526121cb81602086016020860161218f565b601f01601f19169290920160200192915050565b8281526040602082015260006118ec60408301846121b3565b80356001600160a01b038116811461220f57600080fd5b919050565b60006020828403121561222657600080fd5b611d85826121f8565b602081526000611d8560208301846121b3565b6000806040838503121561225557600080fd5b61225e836121f8565b946020939093013593505050565b634e487b7160e01b600052604160045260246000fd5b600067ffffffffffffffff8084111561229d5761229d61226c565b604051601f8501601f19908116603f011681019082821181831017156122c5576122c561226c565b816040528093508581528686860111156122de57600080fd5b858560208301376000602087830101525050509392505050565b600082601f83011261230957600080fd5b611d8583833560208501612282565b600080600080600060a0868803121561233057600080fd5b612339866121f8565b9450602086013567ffffffffffffffff8082111561235657600080fd5b61236289838a016122f8565b9550604088013591508082111561237857600080fd5b61238489838a016122f8565b9450606088013591508082111561239a57600080fd5b506123a7888289016122f8565b95989497509295608001359392505050565b6000806000606084860312156123ce57600080fd5b6123d7846121f8565b92506123e5602085016121f8565b9150604084013590509250925092565b803561ffff8116811461220f57600080fd5b6000806000806080858703121561241d57600080fd5b843567ffffffffffffffff8082111561243557600080fd5b612441888389016122f8565b955060208701359450612456604088016123f5565b9350606087013591508082111561246c57600080fd5b50612479878288016122f8565b91505092959194509250565b60006020828403121561249757600080fd5b611d85826123f5565b801515811461215657600080fd5b600080604083850312156124c157600080fd5b6124ca836121f8565b915060208301356124da816124a0565b809150509250929050565b600080600080608085870312156124fb57600080fd5b612504856121f8565b9350612512602086016121f8565b925060408501359150606085013567ffffffffffffffff81111561253557600080fd5b8501601f8101871361254657600080fd5b61247987823560208401612282565b6000806040838503121561256857600080fd5b612571836121f8565b915061257f602084016121f8565b90509250929050565b600181811c9082168061259c57607f821691505b6020821081036125bc57634e487b7160e01b600052602260045260246000fd5b50919050565b8381526000602060606020840152600085546125dd81612588565b80606087015260806001808416600081146125ff576001811461261b5761264b565b60ff19851660808a0152608084151560051b8a0101955061264b565b8a600052602060002060005b858110156126425781548b8201860152908301908801612627565b8a016080019650505b505050506001600160a01b03861660408601525091506118ec9050565b6020808252600e908201526d27b7363c9037b933b0b734bd32b960911b604082015260600190565b634e487b7160e01b600052602160045260246000fd5b6000602082840312156126b857600080fd5b8151611d85816124a0565b634e487b7160e01b600052601160045260246000fd5b61ffff8181168382160190808211156126f4576126f46126c3565b5092915050565b601f821115610c1c576000816000526020600020601f850160051c810160208610156127245750805b601f850160051c820191505b8181101561274357828155600101612730565b505050505050565b815167ffffffffffffffff8111156127655761276561226c565b612779816127738454612588565b846126fb565b602080601f8311600181146127ae57600084156127965750858301515b600019600386901b1c1916600185901b178555612743565b600085815260208120601f198616915b828110156127dd578886015182559484019460019091019084016127be565b50858210156127fb5787850151600019600388901b60f8161c191681555b5050505050600190811b01905550565b600061ffff808316818103612822576128226126c3565b6001019392505050565b60006020828403121561283e57600080fd5b5051919050565b600060018201612857576128576126c3565b5060010190565b6000835161287081846020880161218f565b83519083019061288481836020880161218f565b01949350505050565b6001600160a01b03858116825284166020820152604081018390526080606082018190526000906128c0908301846121b3565b9695505050505050565b6000602082840312156128dc57600080fd5b8151611d858161214056fea26469706673582212207946b54ed626358d6f605f9d95adc905214020f331085d20fb20530f9cbcdea164736f6c63430008180033a2646970667358221220e9a0074c091db5235f144c23ace4976838a91b8e087ab3f450704285f9da865564736f6c63430008180033",
  "linkReferences": {},
  "deployedLinkReferences": {}
}