{
  "_format": "hh-sol-artifact-1",
  "contractName": "EventManagerFactory",
  "sourceName": "contracts/EventManagerFactory.sol",
  "abi": [
    {
      "anonymous": false,
      "inputs": [
        {
          "indexed": false,
          "internalType": "uint256",
          "name": "eventId",
          "type": "uint256"
        },
        {
          "indexed": false,
          "internalType": "address",
          "name": "organizer",
          "type": "address"
        },
        {
          "indexed": false,
          "internalType": "string",
          "name": "name",
          "type": "string"
        },
        {
          "indexed": false,
          "internalType": "string",
          "name": "description",
          "type": "string"
        },
        {
          "indexed": false,
          "internalType": "string",
          "name": "venue",
          "type": "string"
        },
        {
          "indexed": false,
          "internalType": "string",
          "name": "image",
          "type": "string"
        },
        {
          "indexed": false,
          "internalType": "uint256",
          "name": "startDate",
          "type": "uint256"
        },
        {
          "indexed": false,
          "internalType": "uint256",
          "name": "endDate",
          "type": "uint256"
        },
        {
          "indexed": false,
          "internalType": "uint16",
          "name": "totalTicketAvailable",
          "type": "uint16"
        }
      ],
      "name": "EventCreated",
      "type": "event"
    },
    {
      "inputs": [
        {
          "internalType": "uint256",
          "name": "",
          "type": "uint256"
        }
      ],
      "name": "IdToEvents",
      "outputs": [
        {
          "internalType": "contract EventContract",
          "name": "",
          "type": "address"
        }
      ],
      "stateMutability": "view",
      "type": "function"
    },
    {
      "inputs": [
        {
          "internalType": "address",
          "name": "paymentTokenAddress",
          "type": "address"
        },
        {
          "internalType": "string",
          "name": "_NftTokenName",
          "type": "string"
        },
        {
          "internalType": "string",
          "name": "_NftSymbol",
          "type": "string"
        },
        {
          "internalType": "string",
          "name": "_name",
          "type": "string"
        },
        {
          "internalType": "string",
          "name": "_description",
          "type": "string"
        },
        {
          "internalType": "string",
          "name": "_venue",
          "type": "string"
        },
        {
          "internalType": "string",
          "name": "_image",
          "type": "string"
        },
        {
          "internalType": "uint256",
          "name": "_startDate",
          "type": "uint256"
        },
        {
          "internalType": "uint256",
          "name": "_endDate",
          "type": "uint256"
        },
        {
          "internalType": "uint16",
          "name": "_totalTicketAvailable",
          "type": "uint16"
        }
      ],
      "name": "createEvent",
      "outputs": [
        {
          "internalType": "contract EventContract",
          "name": "",
          "type": "address"
        }
      ],
      "stateMutability": "nonpayable",
      "type": "function"
    },
    {
      "inputs": [],
      "name": "eventCounter",
      "outputs": [
        {
          "internalType": "uint256",
          "name": "",
          "type": "uint256"
        }
      ],
      "stateMutability": "view",
      "type": "function"
    },
    {
      "inputs": [],
      "name": "getEvents",
      "outputs": [
        {
          "internalType": "contract EventContract[]",
          "name": "",
          "type": "address[]"
        }
      ],
      "stateMutability": "view",
      "type": "function"
    },
    {
      "inputs": [
        {
          "internalType": "address",
          "name": "",
          "type": "address"
        },
        {
          "internalType": "uint256",
          "name": "",
          "type": "uint256"
        }
      ],
      "name": "organizerEvent",
      "outputs": [
        {
          "internalType": "contract EventContract",
          "name": "",
          "type": "address"
        }
      ],
      "stateMutability": "view",
      "type": "function"
    }
  ],
  "bytecode": "0x608060405234801561001057600080fd5b50614960806100206000396000f3fe60806040523480156200001157600080fd5b50600436106200005e5760003560e01c80632ce00f311462000063578063404aa8f9146200009757806352c55db914620000b0578063531b74ab14620000c9578063773b678f14620000f5575b600080fd5b6200007a62000074366004620003d6565b6200010c565b6040516001600160a01b0390911681526020015b60405180910390f35b620000a162000250565b6040516200008e91906200051a565b620000ba60005481565b6040519081526020016200008e565b6200007a620000da36600462000569565b6002602052600090815260409020546001600160a01b031681565b6200007a6200010636600462000583565b620002b4565b600080338c8c8c8c8c8c8c8c8c8c6040516200012890620002ed565b6200013e9b9a99989796959493929190620005f8565b604051809103906000f0801580156200015b573d6000803e3d6000fd5b5060008054919250806200016f83620006c6565b909155505060008054815260026020908152604080832080546001600160a01b0386166001600160a01b031991821681179092556001805480820182557fb10e2d527612073b26eecdfd717e6a320cf44b4afac2b0732d9fcbe2b7fa0cf601805483168417905533808752600386528487208054928301815587529486200180549091169091179055915491517fe4e52e7a659645817129be6ff9605a97fb46c43bd1f251d0023b4dc9ec6e356192620002399290918d908d908d908d908d908d908d90620006ee565b60405180910390a19b9a5050505050505050505050565b60606001805480602002602001604051908101604052809291908181526020018280548015620002aa57602002820191906000526020600020905b81546001600160a01b031681526001909101906020018083116200028b575b5050505050905090565b60036020528160005260406000208181548110620002d157600080fd5b6000918252602090912001546001600160a01b03169150829050565b6141a6806200078583390190565b80356001600160a01b03811681146200031357600080fd5b919050565b634e487b7160e01b600052604160045260246000fd5b600082601f8301126200034057600080fd5b813567ffffffffffffffff808211156200035e576200035e62000318565b604051601f8301601f19908116603f0116810190828211818310171562000389576200038962000318565b81604052838152866020858801011115620003a357600080fd5b836020870160208301376000602085830101528094505050505092915050565b803561ffff811681146200031357600080fd5b6000806000806000806000806000806101408b8d031215620003f757600080fd5b620004028b620002fb565b995060208b013567ffffffffffffffff808211156200042057600080fd5b6200042e8e838f016200032e565b9a5060408d01359150808211156200044557600080fd5b620004538e838f016200032e565b995060608d01359150808211156200046a57600080fd5b620004788e838f016200032e565b985060808d01359150808211156200048f57600080fd5b6200049d8e838f016200032e565b975060a08d0135915080821115620004b457600080fd5b620004c28e838f016200032e565b965060c08d0135915080821115620004d957600080fd5b50620004e88d828e016200032e565b94505060e08b013592506101008b01359150620005096101208c01620003c3565b90509295989b9194979a5092959850565b6020808252825182820181905260009190848201906040850190845b818110156200055d5783516001600160a01b03168352928401929184019160010162000536565b50909695505050505050565b6000602082840312156200057c57600080fd5b5035919050565b600080604083850312156200059757600080fd5b620005a283620002fb565b946020939093013593505050565b6000815180845260005b81811015620005d857602081850181015186830182015201620005ba565b506000602082860101526020601f19601f83011685010191505092915050565b6001600160a01b038c811682528b1660208201526000610160806040840152620006258184018d620005b0565b905082810360608401526200063b818c620005b0565b9050828103608084015262000651818b620005b0565b905082810360a084015262000667818a620005b0565b905082810360c08401526200067d8189620005b0565b905082810360e0840152620006938188620005b0565b9150508461010083015283610120830152620006b661014083018461ffff169052565b9c9b505050505050505050505050565b600060018201620006e757634e487b7160e01b600052601160045260246000fd5b5060010190565b8981526001600160a01b0389166020820152610120604082018190526000906200071b8382018b620005b0565b9050828103606084015262000731818a620005b0565b90508281036080840152620007478189620005b0565b905082810360a08401526200075d8188620005b0565b60c0840196909652505060e081019290925261ffff1661010090910152969550505050505056fe608060405260016008553480156200001657600080fd5b50604051620041a6380380620041a6833981016040819052620000399162000524565b8888600062000049838262000733565b50600162000058828262000733565b5050506000875111620000a55760405162461bcd60e51b815260206004820152601060248201526f456e746572204576656e74204e616d6560801b60448201526064015b60405180910390fd5b6000895111620000f85760405162461bcd60e51b815260206004820152601360248201527f456e746572204e6674546f6b656e4e616d65200000000000000000000000000060448201526064016200009c565b60008851116200013e5760405162461bcd60e51b815260206004820152601060248201526f115b9d195c8817d3999d14de5b589bdb60821b60448201526064016200009c565b6000865111620001915760405162461bcd60e51b815260206004820152601760248201527f456e746572204576656e74204465736372697074696f6e00000000000000000060448201526064016200009c565b6000855111620001d85760405162461bcd60e51b8152602060048201526011602482015270456e746572204576656e742056656e756560781b60448201526064016200009c565b60008451116200021f5760405162461bcd60e51b8152602060048201526011602482015270456e746572204576656e7420496d61676560781b60448201526064016200009c565b60008311620002715760405162461bcd60e51b815260206004820152601860248201527f456e74657220612076616c69642053746172742044617465000000000000000060448201526064016200009c565b60008211620002c35760405162461bcd60e51b815260206004820152601660248201527f456e74657220612076616c696420456e6420446174650000000000000000000060448201526064016200009c565b81831115620003155760405162461bcd60e51b815260206004820152601b60248201527f496e76616c696420737461727420616e6420656e6420646174652e000000000060448201526064016200009c565b60008161ffff16116200036b5760405162461bcd60e51b815260206004820152601660248201527f456e746572207469636b657420617661696c61626c650000000000000000000060448201526064016200009c565b6001600160a01b038a16156200039757601a80546001600160a01b0319166001600160a01b038c161790555b6009805462010000600160b01b031916620100006001600160a01b038e1602179055600a620003c7888262000733565b50600b620003d6878262000733565b50600c620003e5868262000733565b50600d620003f4858262000733565b50600e92909255600f556010805461ffff191661ffff90921691909117905550506014805460ff1916905550620007ff945050505050565b80516001600160a01b03811681146200044457600080fd5b919050565b634e487b7160e01b600052604160045260246000fd5b600082601f8301126200047157600080fd5b81516001600160401b03808211156200048e576200048e62000449565b604051601f8301601f19908116603f01168101908282118183101715620004b957620004b962000449565b8160405283815260209250866020858801011115620004d757600080fd5b600091505b83821015620004fb5785820183015181830184015290820190620004dc565b6000602085830101528094505050505092915050565b805161ffff811681146200044457600080fd5b60008060008060008060008060008060006101608c8e0312156200054757600080fd5b620005528c6200042c565b9a506200056260208d016200042c565b60408d0151909a506001600160401b038111156200057f57600080fd5b6200058d8e828f016200045f565b60608e0151909a5090506001600160401b03811115620005ac57600080fd5b620005ba8e828f016200045f565b60808e015190995090506001600160401b03811115620005d957600080fd5b620005e78e828f016200045f565b60a08e015190985090506001600160401b038111156200060657600080fd5b620006148e828f016200045f565b60c08e015190975090506001600160401b038111156200063357600080fd5b620006418e828f016200045f565b60e08e015190965090506001600160401b038111156200066057600080fd5b6200066e8e828f016200045f565b9450506101008c015192506101208c01519150620006906101408d0162000511565b90509295989b509295989b9093969950565b600181811c90821680620006b757607f821691505b602082108103620006d857634e487b7160e01b600052602260045260246000fd5b50919050565b601f8211156200072e576000816000526020600020601f850160051c81016020861015620007095750805b601f850160051c820191505b818110156200072a5782815560010162000715565b5050505b505050565b81516001600160401b038111156200074f576200074f62000449565b6200076781620007608454620006a2565b84620006de565b602080601f8311600181146200079f5760008415620007865750858301515b600019600386901b1c1916600185901b1785556200072a565b600085815260208120601f198616915b82811015620007d057888601518255948401946001909101908401620007af565b5085821015620007ef5787850151600019600388901b60f8161c191681555b5050505050600190811b01905550565b613997806200080f6000396000f3fe60806040526004361061025c5760003560e01c80636120326511610144578063b88d4fde116100b6578063d9c38cbf1161007a578063d9c38cbf14610777578063e22bda3514610797578063e985e9c5146107ac578063f498f3d8146107cc578063faf04f79146107e7578063fc0c546a146107fd57600080fd5b8063b88d4fde146106f8578063bf2d9e0b14610718578063c24a0f8b1461072e578063c87b56dd14610744578063d716aa271461076457600080fd5b80638858287b116101085780638858287b146106485780639434571b1461066357806395d89b4114610678578063982f6b671461068d578063a20dcd7d146106c3578063a22cb465146106d857600080fd5b8063612032651461059c5780636352211e146105c2578063644af77e146105e257806370a08231146106135780638043c9c01461063357600080fd5b8063200d2ed2116101dd57806342859657116101a157806342859657146104805780634b548d71146104a057806350b44712146104c05780635b7baf64146105385780635d1bd1af146105585780636031a52f1461058657600080fd5b8063200d2ed2146103cf57806323b872dd146103f657806327e30c3614610416578063312c58661461044b57806342842e0e1461046057600080fd5b8063081812fc11610224578063081812fc1461031d578063095ea7b3146103555780630b97bc86146103755780630c739d4a1461039957806311a18ecf146103af57600080fd5b806301ffc9a71461026157806303135f0314610296578063054ae7df146102ad57806305750a8a146102db57806306fdde03146102fb575b600080fd5b34801561026d57600080fd5b5061028161027c366004612f6f565b61081d565b60405190151581526020015b60405180910390f35b3480156102a257600080fd5b506102ab610848565b005b3480156102b957600080fd5b506102cd6102c8366004612f8c565b61091f565b60405161028d929190612ff5565b3480156102e757600080fd5b506102ab6102f636600461302a565b610bb6565b34801561030757600080fd5b50610310610e53565b60405161028d9190613045565b34801561032957600080fd5b5061033d610338366004612f8c565b610ee5565b6040516001600160a01b03909116815260200161028d565b34801561036157600080fd5b506102ab610370366004613058565b610f0e565b34801561038157600080fd5b5061038b600e5481565b60405190815260200161028d565b3480156103a557600080fd5b5061038b60115481565b3480156103bb57600080fd5b506102ab6103ca36600461312e565b610f1d565b3480156103db57600080fd5b506014546103e99060ff1681565b60405161028d91906131e5565b34801561040257600080fd5b506102ab6104113660046131ff565b61130e565b34801561042257600080fd5b5061043661043136600461302a565b611399565b60405161028d9998979695949392919061324b565b34801561045757600080fd5b50610310611592565b34801561046c57600080fd5b506102ab61047b3660046131ff565b611620565b34801561048c57600080fd5b506102ab61049b36600461302a565b611640565b3480156104ac57600080fd5b506102ab6104bb3660046132eb565b6118a1565b3480156104cc57600080fd5b506105266104db366004612f8c565b6017602052600090815260409020805460018201546002830154600390930154919261ffff909116916001600160a01b0381169060ff600160a01b8204811691600160a81b90041686565b60405161028d96959493929190613369565b34801561054457600080fd5b506102ab610553366004612f8c565b611b4a565b34801561056457600080fd5b506010546105739061ffff1681565b60405161ffff909116815260200161028d565b34801561059257600080fd5b5061038b60085481565b3480156105a857600080fd5b5060095461033d906201000090046001600160a01b031681565b3480156105ce57600080fd5b5061033d6105dd366004612f8c565b611dea565b3480156105ee57600080fd5b506106026105fd3660046133b2565b611df5565b60405161028d9594939291906133cd565b34801561061f57600080fd5b5061038b61062e36600461302a565b611f41565b34801561063f57600080fd5b50610310611f89565b34801561065457600080fd5b506009546105739061ffff1681565b34801561066f57600080fd5b50610310611f96565b34801561068457600080fd5b50610310611fa3565b34801561069957600080fd5b5061033d6106a83660046133b2565b6016602052600090815260409020546001600160a01b031681565b3480156106cf57600080fd5b506102ab611fb2565b3480156106e457600080fd5b506102ab6106f3366004613425565b612024565b34801561070457600080fd5b506102ab61071336600461345c565b61202f565b34801561072457600080fd5b5061038b60135481565b34801561073a57600080fd5b5061038b600f5481565b34801561075057600080fd5b5061031061075f366004612f8c565b612046565b6102ab6107723660046134cc565b612157565b34801561078357600080fd5b506104366107923660046133b2565b6126c3565b3480156107a357600080fd5b506103106126fc565b3480156107b857600080fd5b506102816107c73660046134e8565b612709565b3480156107d857600080fd5b506007546105739061ffff1681565b3480156107f357600080fd5b5061038b60125481565b34801561080957600080fd5b50601a5461033d906001600160a01b031681565b60006001600160e01b03198216632483248360e11b1480610842575061084282612737565b92915050565b6009546201000090046001600160a01b031633146108815760405162461bcd60e51b81526004016108789061351b565b60405180910390fd5b600360145460ff16600381111561089a5761089a6131cf565b036108e75760405162461bcd60e51b815260206004820152601860248201527f4576656e7420616c7265616479207465726d696e6174656400000000000000006044820152606401610878565b6014805460ff191660031790556040517f06a7dcfdb0fc662ea1022debaf830d0576a105a7c6996e3cfa88f9cbf0d4350e90600090a1565b60008181526017602052604081205460609082036109735760405162461bcd60e51b8152602060048201526011602482015270125b9d985b1a5908151a58dad95d081251607a1b6044820152606401610878565b3361097d84611dea565b6001600160a01b0316146109d35760405162461bcd60e51b815260206004820152601a60248201527f4164647265737320646f6573206e6f742068617665204e46542e0000000000006044820152606401610878565b6000838152601760209081526040808320815160c0810183528154815260018083015461ffff169482019490945260028201549281019290925260038101546001600160a01b038116606084015260ff600160a01b82048116151560808501529293919260a0850192600160a81b9092041690811115610a5557610a556131cf565b6001811115610a6657610a666131cf565b905250608081015190915015610ab05760405162461bcd60e51b815260206004820152600f60248201526e151a58dad95d081499599d5b991959608a1b6044820152606401610878565b60208082015161ffff1660009081526015909152604090819020905185917f7fd23f6ad00d3f0f5eed2692b87e05840d25373c796196e43bd3783bac1bfd0991610afc9190339061357d565b60405180910390a260208082015161ffff16600090815260159091526040902080548591908190610b2c90613543565b80601f0160208091040260200160405190810160405280929190818152602001828054610b5890613543565b8015610ba55780601f10610b7a57610100808354040283529160200191610ba5565b820191906000526020600020905b815481529060010190602001808311610b8857829003601f168201915b505050505090509250925050915091565b6009546201000090046001600160a01b03163314610be65760405162461bcd60e51b81526004016108789061351b565b6001600160a01b038116600090815260186020526040812054600160a01b900461ffff169003610c4b5760405162461bcd60e51b815260206004820152601060248201526f15995b991bdc88139bdd08119bdd5b9960821b6044820152606401610878565b6001600160a01b03811660009081526018602052604090206001600582015462010000900460ff166001811115610c8457610c846131cf565b03610cc55760405162461bcd60e51b815260206004820152601160248201527015995b9bd91c8815195c9b5a5b985d1959607a1b6044820152606401610878565b600581015460ff1615610d165760405162461bcd60e51b81526020600482015260196024820152782b32b73237b91029b2b93b34b1b29021b7b73334b936b2b21760391b6044820152606401610878565b6005810154610100900460ff1615610d675760405162461bcd60e51b81526020600482015260146024820152732b32b73237b91020b63932b0b23c902830b4b21760611b6044820152606401610878565b60058101805461ffff191661010117905560048101548015610dfd57601a54825460405163a9059cbb60e01b81526001600160a01b0391821660048201526024810184905291169063a9059cbb906044016020604051808303816000875af1158015610dd7573d6000803e3d6000fd5b505050506040513d601f19601f82011682018060405250810190610dfb919061361a565b505b8154604080516001600160a01b038316815260016020820152600160a01b90920461ffff16917ff2a30595b21672158055d487e8406fd79e63b6cb9dbdac27e49be15feb77b10b910160405180910390a2505050565b606060008054610e6290613543565b80601f0160208091040260200160405190810160405280929190818152602001828054610e8e90613543565b8015610edb5780601f10610eb057610100808354040283529160200191610edb565b820191906000526020600020905b815481529060010190602001808311610ebe57829003601f168201915b5050505050905090565b6000610ef082612787565b506000828152600460205260409020546001600160a01b0316610842565b610f198282336127c0565b5050565b6009546201000090046001600160a01b03163314610f4d5760405162461bcd60e51b81526004016108789061351b565b6001600160a01b038516610f9c5760405162461bcd60e51b8152602060048201526016602482015275496e76616c69642056656e646f72204164647265737360501b6044820152606401610878565b6000845111610fe45760405162461bcd60e51b815260206004820152601460248201527356656e646f72206e616d6520697320656d70747960601b6044820152606401610878565b600083511161102d5760405162461bcd60e51b815260206004820152601560248201527456656e646f7220696d61676520697320656d70747960581b6044820152606401610878565b600082511161107e5760405162461bcd60e51b815260206004820152601c60248201527f53657276696365206465736372697074696f6e20697320656d707479000000006044820152606401610878565b6001600160a01b038516600090815260186020526040902054600160a01b900461ffff16156110e65760405162461bcd60e51b815260206004820152601460248201527315995b991bdc88185b1c9958591e48185919195960621b6044820152606401610878565b6009546000906110fb9061ffff16600161364d565b6001600160a01b0387166000908152601860205260409020805461ffff60a01b1916600160a01b61ffff8416021781559091506001810161113c87826136bf565b506002810161114b86826136bf565b506003810161115a85826136bf565b506004810183905580546001600160a01b0388166001600160a01b03199182168117835560058301805462ff00001916905561ffff84811660009081526019602052604090208054938416831781558454600160a01b908190049092169091026001600160b01b031990931690911791909117815581906001818101906111e39084018261377f565b506002818101906111f69084018261377f565b506003818101906112099084018261377f565b506004828101549082015560058083018054918301805460ff938416151560ff19821681178355835461010090819004861615150261ff001990911661ffff1990921691909117178082559154620100009081900490931692909162ff000019169083600181111561127d5761127d6131cf565b0217905550506009805461ffff169150600061129883613852565b91906101000a81548161ffff021916908361ffff160217905550508161ffff167fd18845e21149a91de2fd5316a0fe591546d1a1853cb17777e2d67f1db3b9ff8188856040516112fd9291906001600160a01b03929092168252602082015260400190565b60405180910390a250505050505050565b6001600160a01b03821661133857604051633250574960e11b815260006004820152602401610878565b60006113458383336127cd565b9050836001600160a01b0316816001600160a01b031614611393576040516364283d7b60e01b81526001600160a01b0380861660048301526024820184905282166044820152606401610878565b50505050565b601860205260009081526040902080546001820180546001600160a01b03831693600160a01b90930461ffff169291906113d290613543565b80601f01602080910402602001604051908101604052809291908181526020018280546113fe90613543565b801561144b5780601f106114205761010080835404028352916020019161144b565b820191906000526020600020905b81548152906001019060200180831161142e57829003601f168201915b50505050509080600201805461146090613543565b80601f016020809104026020016040519081016040528092919081815260200182805461148c90613543565b80156114d95780601f106114ae576101008083540402835291602001916114d9565b820191906000526020600020905b8154815290600101906020018083116114bc57829003601f168201915b5050505050908060030180546114ee90613543565b80601f016020809104026020016040519081016040528092919081815260200182805461151a90613543565b80156115675780601f1061153c57610100808354040283529160200191611567565b820191906000526020600020905b81548152906001019060200180831161154a57829003601f168201915b50505050600483015460059093015491929160ff808216925061010082048116916201000090041689565b600d805461159f90613543565b80601f01602080910402602001604051908101604052809291908181526020018280546115cb90613543565b80156116185780601f106115ed57610100808354040283529160200191611618565b820191906000526020600020905b8154815290600101906020018083116115fb57829003601f168201915b505050505081565b61163b8383836040518060200160405280600081525061202f565b505050565b6009546201000090046001600160a01b031633146116705760405162461bcd60e51b81526004016108789061351b565b6001600160a01b038116600090815260186020526040812054600160a01b900461ffff1690036116d55760405162461bcd60e51b815260206004820152601060248201526f15995b991bdc88139bdd08119bdd5b9960821b6044820152606401610878565b60016001600160a01b03821660009081526018602052604090206005015462010000900460ff16600181111561170d5761170d6131cf565b0361175a5760405162461bcd60e51b815260206004820152601b60248201527f56656e646f722041677265656d656e74205465726d696e6174656400000000006044820152606401610878565b6001600160a01b038116600090815260186020526040902060050154610100900460ff16156117c25760405162461bcd60e51b81526020600482015260146024820152732b32b73237b91020b63932b0b23c902830b4b21760611b6044820152606401610878565b6001600160a01b03811660009081526018602052604090206005015460ff161561182a5760405162461bcd60e51b81526020600482015260196024820152782b32b73237b91029b2b93b34b1b29021b7b73334b936b2b21760391b6044820152606401610878565b6001600160a01b03811660009081526018602052604090206005810180546001919062ff00001916620100008302179055508054604051600160a01b90910461ffff1681527f102acbfce99771dfe1e691dba311e5c919e33a8c7d9d097b390595b7496dda9b906020015b60405180910390a15050565b6009546201000090046001600160a01b031633146118d15760405162461bcd60e51b81526004016108789061351b565b60008451116119225760405162461bcd60e51b815260206004820152601760248201527f5469636b6574206e616d652069732072657175697265640000000000000000006044820152606401610878565b60008261ffff161161198d5760405162461bcd60e51b815260206004820152602e60248201527f546f74616c207469636b65747320617661696c61626c65206d7573742062652060448201526d067726561746572207468616e20360941b6064820152608401610878565b60008151116119d75760405162461bcd60e51b8152602060048201526016602482015275151a58dad95d08155492481a5cc81c995c5d5a5c995960521b6044820152606401610878565b60105460115461ffff918216916119f19190851690613873565b1115611a3f5760405162461bcd60e51b815260206004820152601f60248201527f4578636565647320746f74616c20617661696c61626c65207469636b657473006044820152606401610878565b6007546000906015908290611a599061ffff16600161364d565b61ffff1681526020810191909152604001600020905080611a7a86826136bf565b506001810184905560038101611a9083826136bf565b5060028101805461ffff808616620100000263ffff0000199092169190911790915560078054909116906000611ac583613852565b91906101000a81548161ffff021916908361ffff160217905550508261ffff1660116000828254611af69190613873565b90915550506007546040805161ffff92831681526020810187905291851682820152517f5f6199a78bf978fcd63f660aa6bb9eb044077c994cb141c830d96362bd76711e9181900360600190a15050505050565b600360145460ff166003811115611b6357611b636131cf565b14611bb05760405162461bcd60e51b815260206004820152601860248201527f4576656e74206973207374696c6c206f6e2d676f696e672e00000000000000006044820152606401610878565b600081815260176020526040902060038101546001600160a01b03163314611c105760405162461bcd60e51b8152602060048201526013602482015272139bdd081bdddb995c881bd9881d1a58dad95d606a1b6044820152606401610878565b6003810154600160a01b900460ff1615611c5d5760405162461bcd60e51b815260206004820152600e60248201526d151bdad95b881c99599d5b99195960921b6044820152606401610878565b60038101805460ff60a01b1916600160a01b1790819055600282015490600160a81b900460ff166000816001811115611c9857611c986131cf565b03611d5957601a5460405163a9059cbb60e01b8152336004820152602481018490526001600160a01b039091169063a9059cbb906044016020604051808303816000875af1158015611cee573d6000803e3d6000fd5b505050506040513d601f19601f82011682018060405250810190611d12919061361a565b611d545760405162461bcd60e51b8152602060048201526013602482015272151bdad95b881c99599d5b990819985a5b1959606a1b6044820152606401610878565b611da1565b6001816001811115611d6d57611d6d6131cf565b03611da157604051339083156108fc029084906000818181858888f19350505050158015611d9f573d6000803e3d6000fd5b505b611daa846128c8565b6040805183815233602082015285917ff58965c0ecab72de15cc9f4ded64898d9deb1a2f1a7acdf867187295e5dfaf12910160405180910390a250505050565b600061084282612787565b601560205260009081526040902080548190611e1090613543565b80601f0160208091040260200160405190810160405280929190818152602001828054611e3c90613543565b8015611e895780601f10611e5e57610100808354040283529160200191611e89565b820191906000526020600020905b815481529060010190602001808311611e6c57829003601f168201915b505050600184015460028501546003860180549596929561ffff808416965062010000909304909216935090611ebe90613543565b80601f0160208091040260200160405190810160405280929190818152602001828054611eea90613543565b8015611f375780601f10611f0c57610100808354040283529160200191611f37565b820191906000526020600020905b815481529060010190602001808311611f1a57829003601f168201915b5050505050905085565b60006001600160a01b038216611f6d576040516322718ad960e21b815260006004820152602401610878565b506001600160a01b031660009081526003602052604090205490565b600a805461159f90613543565b600b805461159f90613543565b606060018054610e6290613543565b6009546201000090046001600160a01b03163314611fe25760405162461bcd60e51b81526004016108789061351b565b600e544210158015611ff65750600f544211155b1561200a576014805460ff19166001179055565b600f54421115612022576014805460ff191660021790555b565b610f19338383612903565b61203a84848461130e565b611393848484846129a2565b606061205182612787565b506000828152600660205260408120805461206b90613543565b80601f016020809104026020016040519081016040528092919081815260200182805461209790613543565b80156120e45780601f106120b9576101008083540402835291602001916120e4565b820191906000526020600020905b8154815290600101906020018083116120c757829003601f168201915b50505050509050600061210260408051602081019091526000815290565b90508051600003612114575092915050565b81511561214657808260405160200161212e929190613886565b60405160208183030381529060405292505050919050565b61214f84612acb565b949350505050565b336121965760405162461bcd60e51b815260206004820152600f60248201526e496e76616c6964204164647265737360881b6044820152606401610878565b61ffff8216600090815260156020526040812060030180546121b790613543565b9050116121f85760405162461bcd60e51b815260206004820152600f60248201526e125b9d985b1a5908151a595c881251608a1b6044820152606401610878565b61ffff8216600090815260156020526040808220815160a0810190925280548290829061222490613543565b80601f016020809104026020016040519081016040528092919081815260200182805461225090613543565b801561229d5780601f106122725761010080835404028352916020019161229d565b820191906000526020600020905b81548152906001019060200180831161228057829003601f168201915b505050918352505060018201546020820152600282015461ffff8082166040840152620100009091041660608201526003820180546080909201916122e190613543565b80601f016020809104026020016040519081016040528092919081815260200182805461230d90613543565b801561235a5780601f1061232f5761010080835404028352916020019161235a565b820191906000526020600020905b81548152906001019060200180831161233d57829003601f168201915b5050505050815250509050600082826020015161237791906138b5565b9050600134156123d657813410156123d15760405162461bcd60e51b815260206004820152601a60248201527f496e73756666696369656e742045746865722062616c616e63650000000000006044820152606401610878565b612553565b601a546040516370a0823160e01b815233600482015283916001600160a01b0316906370a0823190602401602060405180830381865afa15801561241e573d6000803e3d6000fd5b505050506040513d601f19601f8201168201806040525081019061244291906138cc565b10156124905760405162461bcd60e51b815260206004820152601a60248201527f496e73756666696369656e7420746f6b656e2062616c616e63650000000000006044820152606401610878565b601a546040516323b872dd60e01b8152336004820152306024820152604481018490526001600160a01b03909116906323b872dd906064016020604051808303816000875af11580156124e7573d6000803e3d6000fd5b505050506040513d601f19601f8201168201806040525081019061250b919061361a565b61254f5760405162461bcd60e51b8152602060048201526015602482015274151bdad95b881d1c985b9cd9995c8819985a5b1959605a1b6044820152606401610878565b5060005b81601360008282546125659190613873565b92505081905550836012600082825461257e9190613873565b90915550600090505b848110156126a45760008160085461259f9190613873565b60008181526017602052604090206003810180546001600160a01b0319163317905581815560018101805461ffff8b1661ffff199091161790559091506125e687866138e5565b600282015560038101805460ff60a01b198116825585919061ffff60a01b1916600160a81b83600181111561261d5761261d6131cf565b021790555061262c3383612b3f565b61263a828760800151612b59565b61ffff881660008181526016602090815260409182902080546001600160a01b0319163390811790915582519384529083015283917fc9ed965ae0252b2f9fdbd3835fe5789e5cc43b7dc07639b417e77b0c3589af02910160405180910390a25050600101612587565b5083600860008282546126b79190613873565b90915550505050505050565b601960205260009081526040902080546001820180546001600160a01b03831693600160a01b90930461ffff169291906113d290613543565b600c805461159f90613543565b6001600160a01b03918216600090815260056020908152604080832093909416825291909152205460ff1690565b60006001600160e01b031982166380ac58cd60e01b148061276857506001600160e01b03198216635b5e139f60e01b145b8061084257506301ffc9a760e01b6001600160e01b0319831614610842565b6000818152600260205260408120546001600160a01b03168061084257604051637e27328960e01b815260048101849052602401610878565b61163b8383836001612ba2565b6000828152600260205260408120546001600160a01b03908116908316156127fa576127fa818486612ca8565b6001600160a01b0381161561283857612817600085600080612ba2565b6001600160a01b038116600090815260036020526040902080546000190190555b6001600160a01b03851615612867576001600160a01b0385166000908152600360205260409020805460010190555b60008481526002602052604080822080546001600160a01b0319166001600160a01b0389811691821790925591518793918516917fddf252ad1be2c89b69c2b068fc378daa952ba7f163c4a11628f55a4df523b3ef91a490505b9392505050565b60006128d760008360006127cd565b90506001600160a01b038116610f1957604051637e27328960e01b815260048101839052602401610878565b6001600160a01b03821661293557604051630b61174360e31b81526001600160a01b0383166004820152602401610878565b6001600160a01b03838116600081815260056020908152604080832094871680845294825291829020805460ff191686151590811790915591519182527f17307eab39ab6107e8899845ad3d59bd9653f200f220920489ca2b5937696c31910160405180910390a3505050565b6001600160a01b0383163b1561139357604051630a85bd0160e11b81526001600160a01b0384169063150b7a02906129e4903390889087908790600401613907565b6020604051808303816000875af1925050508015612a1f575060408051601f3d908101601f19168201909252612a1c91810190613944565b60015b612a88573d808015612a4d576040519150601f19603f3d011682016040523d82523d6000602084013e612a52565b606091505b508051600003612a8057604051633250574960e11b81526001600160a01b0385166004820152602401610878565b805181602001fd5b6001600160e01b03198116630a85bd0160e11b14612ac457604051633250574960e11b81526001600160a01b0385166004820152602401610878565b5050505050565b6060612ad682612787565b506000612aee60408051602081019091526000815290565b90506000815111612b0e57604051806020016040528060008152506128c1565b80612b1884612d0c565b604051602001612b29929190613886565b6040516020818303038152906040529392505050565b610f19828260405180602001604052806000815250612d9f565b6000828152600660205260409020612b7182826136bf565b506040518281527ff8e1a15aba9398e019f0b49df1a4fde98ee17ae345cb5f6b5e2c27f5033e8ce790602001611895565b8080612bb657506001600160a01b03821615155b15612c78576000612bc684612787565b90506001600160a01b03831615801590612bf25750826001600160a01b0316816001600160a01b031614155b8015612c055750612c038184612709565b155b15612c2e5760405163a9fbf51f60e01b81526001600160a01b0384166004820152602401610878565b8115612c765783856001600160a01b0316826001600160a01b03167f8c5be1e5ebec7d5bd14f71427d1e84f3dd0314c0f7b2291e5b200ac8c7c3b92560405160405180910390a45b505b5050600090815260046020526040902080546001600160a01b0319166001600160a01b0392909216919091179055565b612cb3838383612db6565b61163b576001600160a01b038316612ce157604051637e27328960e01b815260048101829052602401610878565b60405163177e802f60e01b81526001600160a01b038316600482015260248101829052604401610878565b60606000612d1983612e19565b600101905060008167ffffffffffffffff811115612d3957612d39613082565b6040519080825280601f01601f191660200182016040528015612d63576020820181803683370190505b5090508181016020015b600019016f181899199a1a9b1b9c1cb0b131b232b360811b600a86061a8153600a8504945084612d6d57509392505050565b612da98383612ef1565b61163b60008484846129a2565b60006001600160a01b0383161580159061214f5750826001600160a01b0316846001600160a01b03161480612df05750612df08484612709565b8061214f5750506000908152600460205260409020546001600160a01b03908116911614919050565b60008072184f03e93ff9f4daa797ed6e38ed64bf6a1f0160401b8310612e585772184f03e93ff9f4daa797ed6e38ed64bf6a1f0160401b830492506040015b6d04ee2d6d415b85acef81000000008310612e84576d04ee2d6d415b85acef8100000000830492506020015b662386f26fc100008310612ea257662386f26fc10000830492506010015b6305f5e1008310612eba576305f5e100830492506008015b6127108310612ece57612710830492506004015b60648310612ee0576064830492506002015b600a83106108425760010192915050565b6001600160a01b038216612f1b57604051633250574960e11b815260006004820152602401610878565b6000612f29838360006127cd565b90506001600160a01b0381161561163b576040516339e3563760e11b815260006004820152602401610878565b6001600160e01b031981168114612f6c57600080fd5b50565b600060208284031215612f8157600080fd5b81356128c181612f56565b600060208284031215612f9e57600080fd5b5035919050565b60005b83811015612fc0578181015183820152602001612fa8565b50506000910152565b60008151808452612fe1816020860160208601612fa5565b601f01601f19169290920160200192915050565b82815260406020820152600061214f6040830184612fc9565b80356001600160a01b038116811461302557600080fd5b919050565b60006020828403121561303c57600080fd5b6128c18261300e565b6020815260006128c16020830184612fc9565b6000806040838503121561306b57600080fd5b6130748361300e565b946020939093013593505050565b634e487b7160e01b600052604160045260246000fd5b600067ffffffffffffffff808411156130b3576130b3613082565b604051601f8501601f19908116603f011681019082821181831017156130db576130db613082565b816040528093508581528686860111156130f457600080fd5b858560208301376000602087830101525050509392505050565b600082601f83011261311f57600080fd5b6128c183833560208501613098565b600080600080600060a0868803121561314657600080fd5b61314f8661300e565b9450602086013567ffffffffffffffff8082111561316c57600080fd5b61317889838a0161310e565b9550604088013591508082111561318e57600080fd5b61319a89838a0161310e565b945060608801359150808211156131b057600080fd5b506131bd8882890161310e565b95989497509295608001359392505050565b634e487b7160e01b600052602160045260246000fd5b60208101600483106131f9576131f96131cf565b91905290565b60008060006060848603121561321457600080fd5b61321d8461300e565b925061322b6020850161300e565b9150604084013590509250925092565b60028110612f6c57612f6c6131cf565b6001600160a01b038a16815261ffff891660208201526101206040820181905260009061327a8382018b612fc9565b9050828103606084015261328e818a612fc9565b905082810360808401526132a28189612fc9565b9150508560a083015284151560c083015283151560e08301526132c48361323b565b826101008301529a9950505050505050505050565b803561ffff8116811461302557600080fd5b6000806000806080858703121561330157600080fd5b843567ffffffffffffffff8082111561331957600080fd5b6133258883890161310e565b95506020870135945061333a604088016132d9565b9350606087013591508082111561335057600080fd5b5061335d8782880161310e565b91505092959194509250565b86815261ffff86166020820152604081018590526001600160a01b0384166060820152821515608082015260c081016133a18361323b565b8260a0830152979650505050505050565b6000602082840312156133c457600080fd5b6128c1826132d9565b60a0815260006133e060a0830188612fc9565b6020830187905261ffff868116604085015285166060840152828103608084015261340b8185612fc9565b98975050505050505050565b8015158114612f6c57600080fd5b6000806040838503121561343857600080fd5b6134418361300e565b9150602083013561345181613417565b809150509250929050565b6000806000806080858703121561347257600080fd5b61347b8561300e565b93506134896020860161300e565b925060408501359150606085013567ffffffffffffffff8111156134ac57600080fd5b8501601f810187136134bd57600080fd5b61335d87823560208401613098565b600080604083850312156134df57600080fd5b613074836132d9565b600080604083850312156134fb57600080fd5b6135048361300e565b91506135126020840161300e565b90509250929050565b6020808252600e908201526d27b7363c9037b933b0b734bd32b960911b604082015260600190565b600181811c9082168061355757607f821691505b60208210810361357757634e487b7160e01b600052602260045260246000fd5b50919050565b60408152600080845461358f81613543565b80604086015260606001808416600081146135b157600181146135cd576135ff565b60ff1985166060890152606084151560051b89010195506135ff565b8960005260208060002060005b868110156135f55781548b82018701529084019082016135da565b8a01606001975050505b505050506001600160a01b03851660208501525090506128c1565b60006020828403121561362c57600080fd5b81516128c181613417565b634e487b7160e01b600052601160045260246000fd5b61ffff81811683821601908082111561366857613668613637565b5092915050565b601f82111561163b576000816000526020600020601f850160051c810160208610156136985750805b601f850160051c820191505b818110156136b7578281556001016136a4565b505050505050565b815167ffffffffffffffff8111156136d9576136d9613082565b6136ed816136e78454613543565b8461366f565b602080601f831160018114613722576000841561370a5750858301515b600019600386901b1c1916600185901b1785556136b7565b600085815260208120601f198616915b8281101561375157888601518255948401946001909101908401613732565b508582101561376f5787850151600019600388901b60f8161c191681555b5050505050600190811b01905550565b81810361378a575050565b6137948254613543565b67ffffffffffffffff8111156137ac576137ac613082565b6137ba816136e78454613543565b6000601f8211600181146137ee57600083156137d65750848201545b600019600385901b1c1916600184901b178455612ac4565b600085815260209020601f19841690600086815260209020845b838110156138285782860154825560019586019590910190602001613808565b508583101561376f5793015460001960f8600387901b161c19169092555050600190811b01905550565b600061ffff80831681810361386957613869613637565b6001019392505050565b8082018082111561084257610842613637565b60008351613898818460208801612fa5565b8351908301906138ac818360208801612fa5565b01949350505050565b808202811582820484141761084257610842613637565b6000602082840312156138de57600080fd5b5051919050565b60008261390257634e487b7160e01b600052601260045260246000fd5b500490565b6001600160a01b038581168252841660208201526040810183905260806060820181905260009061393a90830184612fc9565b9695505050505050565b60006020828403121561395657600080fd5b81516128c181612f5656fea264697066735822122000833ec0d35b020d6810a86cde330494ae83731643ee8eedafcdef72acff483c64736f6c63430008180033a26469706673582212202e7ed3bce078706538c88641daf2ddfd11c1c50279db8c6ad198dfa096082c8a64736f6c63430008180033",
  "linkReferences": {},
  "deployedLinkReferences": {}
}