{
  "_format": "hh-sol-artifact-1",
  "contractName": "EventManagerFactory",
  "sourceName": "contracts/EventManagerFactory.sol",
  "abi": [
    {
      "inputs": [
        {
          "internalType": "address",
          "name": "paymentTokenAddress",
          "type": "address"
        },
        {
          "internalType": "string",
          "name": "_NftTokenName",
          "type": "string"
        },
        {
          "internalType": "string",
          "name": "_NftSymbol",
          "type": "string"
        },
        {
          "internalType": "string",
          "name": "_name",
          "type": "string"
        },
        {
          "internalType": "string",
          "name": "_description",
          "type": "string"
        },
        {
          "internalType": "string",
          "name": "_venue",
          "type": "string"
        },
        {
          "internalType": "string",
          "name": "_image",
          "type": "string"
        },
        {
          "internalType": "uint256",
          "name": "_startDate",
          "type": "uint256"
        },
        {
          "internalType": "uint256",
          "name": "_endDate",
          "type": "uint256"
        },
        {
          "internalType": "uint16",
          "name": "_totalTicketAvailable",
          "type": "uint16"
        }
      ],
      "name": "createEvent",
      "outputs": [
        {
          "internalType": "address",
          "name": "",
          "type": "address"
        }
      ],
      "stateMutability": "nonpayable",
      "type": "function"
    },
    {
      "inputs": [
        {
          "internalType": "uint256",
          "name": "",
          "type": "uint256"
        }
      ],
      "name": "events",
      "outputs": [
        {
          "internalType": "address",
          "name": "",
          "type": "address"
        }
      ],
      "stateMutability": "view",
      "type": "function"
    }
  ],
  "bytecode": "0x608060405234801561001057600080fd5b50613430806100206000396000f3fe60806040523480156200001157600080fd5b50600436106200003a5760003560e01c80630b791430146200003f5780632ce00f311462000072575b600080fd5b62000056620000503660046200016a565b62000089565b6040516001600160a01b03909116815260200160405180910390f35b62000056620000833660046200025f565b620000b4565b600081815481106200009a57600080fd5b6000918252602090912001546001600160a01b0316905081565b600080338c8c8c8c8c8c8c8c8c8c604051620000d0906200015c565b620000e69b9a99989796959493929190620003eb565b604051809103906000f08015801562000103573d6000803e3d6000fd5b50600080546001810182559080527f290decd9548b62a8d60345a988386fc84ba6bc95484008f6362f93160ef3e5630180546001600160a01b0319166001600160a01b0383161790559c9b505050505050505050505050565b612f4180620004ba83390190565b6000602082840312156200017d57600080fd5b5035919050565b80356001600160a01b03811681146200019c57600080fd5b919050565b634e487b7160e01b600052604160045260246000fd5b600082601f830112620001c957600080fd5b813567ffffffffffffffff80821115620001e757620001e7620001a1565b604051601f8301601f19908116603f01168101908282118183101715620002125762000212620001a1565b816040528381528660208588010111156200022c57600080fd5b836020870160208301376000602085830101528094505050505092915050565b803561ffff811681146200019c57600080fd5b6000806000806000806000806000806101408b8d0312156200028057600080fd5b6200028b8b62000184565b995060208b013567ffffffffffffffff80821115620002a957600080fd5b620002b78e838f01620001b7565b9a5060408d0135915080821115620002ce57600080fd5b620002dc8e838f01620001b7565b995060608d0135915080821115620002f357600080fd5b620003018e838f01620001b7565b985060808d01359150808211156200031857600080fd5b620003268e838f01620001b7565b975060a08d01359150808211156200033d57600080fd5b6200034b8e838f01620001b7565b965060c08d01359150808211156200036257600080fd5b50620003718d828e01620001b7565b94505060e08b013592506101008b01359150620003926101208c016200024c565b90509295989b9194979a5092959850565b6000815180845260005b81811015620003cb57602081850181015186830182015201620003ad565b506000602082860101526020601f19601f83011685010191505092915050565b6001600160a01b038c811682528b1660208201526000610160806040840152620004188184018d620003a3565b905082810360608401526200042e818c620003a3565b9050828103608084015262000444818b620003a3565b905082810360a08401526200045a818a620003a3565b905082810360c0840152620004708189620003a3565b905082810360e0840152620004868188620003a3565b9150508461010083015283610120830152620004a961014083018461ffff169052565b9c9b50505050505050505050505056fe60806040526001600e553480156200001657600080fd5b5060405162002f4138038062002f41833981016040819052620000399162000501565b8888600062000049838262000710565b50600162000058828262000710565b5050601080546001600160a01b0319166001600160a01b038d811691909117909155600f805462010000600160b01b03191662010000928f169290920291909117905550620000ad87878787878787620000be565b50505050505050505050506200083b565b6000875111620001085760405162461bcd60e51b815260206004820152601060248201526f456e746572204576656e74204e616d6560801b60448201526064015b60405180910390fd5b60008651116200015b5760405162461bcd60e51b815260206004820152601760248201527f456e746572204576656e74204465736372697074696f6e0000000000000000006044820152606401620000ff565b6000855111620001a25760405162461bcd60e51b8152602060048201526011602482015270456e746572204576656e742056656e756560781b6044820152606401620000ff565b6000845111620001e95760405162461bcd60e51b8152602060048201526011602482015270456e746572204576656e7420496d61676560781b6044820152606401620000ff565b600083116200023b5760405162461bcd60e51b815260206004820152601860248201527f456e74657220612076616c6964205374617274204461746500000000000000006044820152606401620000ff565b600082116200028d5760405162461bcd60e51b815260206004820152601660248201527f456e74657220612076616c696420456e642044617465000000000000000000006044820152606401620000ff565b81831115620002f65760405162461bcd60e51b815260206004820152602e60248201527f53746172742044617465206d757374206265206265666f7265206f722065717560448201526d616c20746f20456e64204461746560901b6064820152608401620000ff565b600d546000906200030d9061ffff166001620007f2565b61ffff8116600090815260076020526040902080546001600160a01b0319163317815590915060018101620003438a8262000710565b506002810162000354898262000710565b506003810162000365888262000710565b506004810162000376878262000710565b50600581018590556006810184905560078101805462ffffff191661ffff85811691909117909155600d8054909116906000620003b38362000817565b82546101009290920a61ffff818102199093169183160217909155600d54604051911691507fd86523d1de83ae23812abe03df6dc98f8552b48cb9c8497734e362544ecdcad190600090a2505050505050505050565b80516001600160a01b03811681146200042157600080fd5b919050565b634e487b7160e01b600052604160045260246000fd5b600082601f8301126200044e57600080fd5b81516001600160401b03808211156200046b576200046b62000426565b604051601f8301601f19908116603f0116810190828211818310171562000496576200049662000426565b8160405283815260209250866020858801011115620004b457600080fd5b600091505b83821015620004d85785820183015181830184015290820190620004b9565b6000602085830101528094505050505092915050565b805161ffff811681146200042157600080fd5b60008060008060008060008060008060006101608c8e0312156200052457600080fd5b6200052f8c62000409565b9a506200053f60208d0162000409565b60408d0151909a506001600160401b038111156200055c57600080fd5b6200056a8e828f016200043c565b60608e0151909a5090506001600160401b038111156200058957600080fd5b620005978e828f016200043c565b60808e015190995090506001600160401b03811115620005b657600080fd5b620005c48e828f016200043c565b60a08e015190985090506001600160401b03811115620005e357600080fd5b620005f18e828f016200043c565b60c08e015190975090506001600160401b038111156200061057600080fd5b6200061e8e828f016200043c565b60e08e015190965090506001600160401b038111156200063d57600080fd5b6200064b8e828f016200043c565b9450506101008c015192506101208c015191506200066d6101408d01620004ee565b90509295989b509295989b9093969950565b600181811c908216806200069457607f821691505b602082108103620006b557634e487b7160e01b600052602260045260246000fd5b50919050565b601f8211156200070b576000816000526020600020601f850160051c81016020861015620006e65750805b601f850160051c820191505b818110156200070757828155600101620006f2565b5050505b505050565b81516001600160401b038111156200072c576200072c62000426565b62000744816200073d84546200067f565b84620006bb565b602080601f8311600181146200077c5760008415620007635750858301515b600019600386901b1c1916600185901b17855562000707565b600085815260208120601f198616915b82811015620007ad578886015182559484019460019091019084016200078c565b5085821015620007cc5787850151600019600388901b60f8161c191681555b5050505050600190811b01905550565b634e487b7160e01b600052601160045260246000fd5b61ffff818116838216019080821115620008105762000810620007dc565b5092915050565b600061ffff808316818103620008315762000831620007dc565b6001019392505050565b6126f6806200084b6000396000f3fe608060405234801561001057600080fd5b506004361061018e5760003560e01c806361203265116100de578063a22cb46511610097578063e609019311610071578063e60901931461037c578063e985e9c514610392578063f498f3d8146103a5578063fc0c546a146103b957600080fd5b8063a22cb46514610343578063b88d4fde14610356578063c87b56dd1461036957600080fd5b806361203265146102cd5780636352211e146102e657806370a08231146102f957806371be2e4a1461030c5780638858287b1461032d57806395d89b411461033b57600080fd5b806311a18ecf1161014b5780634b548d71116101255780634b548d711461027d5780634eefee34146102905780635b7baf64146102a35780636031a52f146102b657600080fd5b806311a18ecf1461024457806323b872dd1461025757806342842e0e1461026a57600080fd5b806301ffc9a714610193578063054ae7df146101bb57806305750a8a146101dc57806306fdde03146101f1578063081812fc14610206578063095ea7b314610231575b600080fd5b6101a66101a1366004611f5a565b6103cc565b60405190151581526020015b60405180910390f35b6101ce6101c9366004611f77565b6103f7565b6040516101b2929190611fe0565b6101ef6101ea366004612015565b610613565b005b6101f96107b1565b6040516101b29190612030565b610219610214366004611f77565b610843565b6040516001600160a01b0390911681526020016101b2565b6101ef61023f366004612043565b61086c565b6101ef610252366004612119565b61087b565b6101ef6102653660046121ba565b610b1b565b6101ef6102783660046121ba565b610ba6565b6101ef61028b366004612208565b610bc6565b6101ef61029e366004612286565b610e5b565b6101ef6102b1366004611f77565b6112e2565b6102bf600e5481565b6040519081526020016101b2565b600f54610219906201000090046001600160a01b031681565b6102196102f4366004611f77565b611559565b6102bf610307366004612015565b611564565b600d5461031a9061ffff1681565b60405161ffff90911681526020016101b2565b600f5461031a9061ffff1681565b6101f96115ac565b6101ef6103513660046122af565b6115bb565b6101ef6103643660046122e6565b6115c6565b6101f9610377366004611f77565b6115dd565b600d5461031a90640100000000900461ffff1681565b6101a66103a0366004612356565b6116ee565b600d5461031a9062010000900461ffff1681565b601054610219906001600160a01b031681565b60006001600160e01b03198216632483248360e11b14806103f157506103f18261171c565b92915050565b6000818152600a602052604081205460609082036104505760405162461bcd60e51b8152602060048201526011602482015270125b9d985b1a5908151a58dad95d081251607a1b60448201526064015b60405180910390fd5b3361045a84611559565b6001600160a01b0316146104b05760405162461bcd60e51b815260206004820152601a60248201527f4164647265737320646f6573206e6f742068617665204e46542e0000000000006044820152606401610447565b6000838152600a60209081526040808320815160c08101835281548152600182015461ffff808216838701819052620100009092041682850152600283015460608301526003909201546001600160a01b0381166080830152600160a01b900460ff16151560a0820152908452600890925291829020915190917f7fd23f6ad00d3f0f5eed2692b87e05840d25373c796196e43bd3783bac1bfd099161055991879133906123c3565b60405180910390a160208082015161ffff1660009081526008909152604090208054859190819061058990612389565b80601f01602080910402602001604051908101604052809291908181526020018280546105b590612389565b80156106025780601f106105d757610100808354040283529160200191610602565b820191906000526020600020905b8154815290600101906020018083116105e557829003601f168201915b505050505090509250925050915091565b600f546201000090046001600160a01b031633146106645760405162461bcd60e51b815260206004820152600e60248201526d27b7363c9037b933b0b734bd32b960911b6044820152606401610447565b6001600160a01b0381166000908152600b6020526040812054600160a01b900461ffff1690036106c95760405162461bcd60e51b815260206004820152601060248201526f15995b991bdc88139bdd08119bdd5b9960821b6044820152606401610447565b6001600160a01b0381166000908152600b6020526040902060058101805461ffff19166101011790556004810154801561077757601054825460405163a9059cbb60e01b81526001600160a01b0391821660048201526024810184905291169063a9059cbb906044016020604051808303816000875af1158015610751573d6000803e3d6000fd5b505050506040513d601f19601f820116820180604052508101906107759190612469565b505b604051600181527f311a21906e4d2a86992f4f42d9fec95ba3a246d77232bf4a2ffba6e8fc577b55906020015b60405180910390a1505050565b6060600080546107c090612389565b80601f01602080910402602001604051908101604052809291908181526020018280546107ec90612389565b80156108395780601f1061080e57610100808354040283529160200191610839565b820191906000526020600020905b81548152906001019060200180831161081c57829003601f168201915b5050505050905090565b600061084e8261176c565b506000828152600460205260409020546001600160a01b03166103f1565b6108778282336117a5565b5050565b600f546201000090046001600160a01b031633146108cc5760405162461bcd60e51b815260206004820152600e60248201526d27b7363c9037b933b0b734bd32b960911b6044820152606401610447565b60008451116109145760405162461bcd60e51b815260206004820152601460248201527356656e646f72206e616d6520697320656d70747960601b6044820152606401610447565b600083511161095d5760405162461bcd60e51b815260206004820152601560248201527456656e646f7220696d61676520697320656d70747960581b6044820152606401610447565b60008251116109ba5760405162461bcd60e51b815260206004820152602360248201527f56656e646f722073657276696365206465736372697074696f6e20697320656d60448201526270747960e81b6064820152608401610447565b600f546000906109cf9061ffff16600161249c565b6001600160a01b0387166000908152600b60205260409020805461ffff60a01b1916600160a01b61ffff84160217815590915060018101610a10878261250e565b5060028101610a1f868261250e565b5060038101610a2e858261250e565b506004810183905580546001600160a01b0319166001600160a01b038816178155600d5461ffff9081166000908152600c602090815260408220805460018101825590835290822060108204018054600f9283166002026101000a808602199091168786169190910217905580549092169190610aaa836125ce565b91906101000a81548161ffff021916908361ffff160217905550507fbd85166b3c4c7452aada3e67ba7e664ec7aec273f4179065eb8fd79ece9f3b9f8784604051610b0a9291906001600160a01b03929092168252602082015260400190565b60405180910390a150505050505050565b6001600160a01b038216610b4557604051633250574960e11b815260006004820152602401610447565b6000610b528383336117b2565b9050836001600160a01b0316816001600160a01b031614610ba0576040516364283d7b60e01b81526001600160a01b0380861660048301526024820184905282166044820152606401610447565b50505050565b610bc1838383604051806020016040528060008152506115c6565b505050565b6000845111610c175760405162461bcd60e51b815260206004820152601760248201527f5469636b6574206e616d652069732072657175697265640000000000000000006044820152606401610447565b60008261ffff1611610c825760405162461bcd60e51b815260206004820152602e60248201527f546f74616c207469636b65747320617661696c61626c65206d7573742062652060448201526d067726561746572207468616e20360941b6064820152608401610447565b6000815111610ccc5760405162461bcd60e51b8152602060048201526016602482015275151a58dad95d08155492481a5cc81c995c5d5a5c995960521b6044820152606401610447565b600d54600090610ce9908490640100000000900461ffff1661249c565b600d5461ffff908116600090815260076020819052604090912001549192509081169082161115610d5c5760405162461bcd60e51b815260206004820152601760248201527f4d6178206576656e742073697a652065786365656465640000000000000000006044820152606401610447565b600d805461ffff8084166401000000000265ffff00000000199092169190911791829055600091610d96916201000090910416600161249c565b61ffff8116600090815260086020526040902090915080610db7888261250e565b506001810186905560038101610dcd858261250e565b506002818101805461ffff191661ffff88811691909117909155600d805462010000900490911691610dfe836125ce565b82546101009290920a61ffff818102199093169183160217909155604080518583168152602081018a9052918816908201527f5f6199a78bf978fcd63f660aa6bb9eb044077c994cb141c830d96362bd76711e9150606001610b0a565b33610e9a5760405162461bcd60e51b815260206004820152600f60248201526e496e76616c6964204164647265737360881b6044820152606401610447565b61ffff811660009081526008602052604081206003018054610ebb90612389565b905011610efc5760405162461bcd60e51b815260206004820152600f60248201526e125b9d985b1a5908151a595c881251608a1b6044820152606401610447565b61ffff8116600090815260086020526040808220815160808101909252805482908290610f2890612389565b80601f0160208091040260200160405190810160405280929190818152602001828054610f5490612389565b8015610fa15780601f10610f7657610100808354040283529160200191610fa1565b820191906000526020600020905b815481529060010190602001808311610f8457829003601f168201915b505050918352505060018201546020820152600282015461ffff166040820152600382018054606090920191610fd690612389565b80601f016020809104026020016040519081016040528092919081815260200182805461100290612389565b801561104f5780601f106110245761010080835404028352916020019161104f565b820191906000526020600020905b81548152906001019060200180831161103257829003601f168201915b5050509190925250505060208101516010546040516370a0823160e01b8152336004820152929350909182916001600160a01b0316906370a0823190602401602060405180830381865afa1580156110ab573d6000803e3d6000fd5b505050506040513d601f19601f820116820180604052508101906110cf91906125ef565b101561111d5760405162461bcd60e51b815260206004820152601a60248201527f496e73756666696369656e7420746f6b656e2062616c616e63650000000000006044820152606401610447565b6010546040516323b872dd60e01b8152336004820152306024820152604481018390526001600160a01b03909116906323b872dd906064016020604051808303816000875af1158015611174573d6000803e3d6000fd5b505050506040513d601f19601f820116820180604052508101906111989190612469565b6111dc5760405162461bcd60e51b8152602060048201526015602482015274151bdad95b881d1c985b9cd9995c8819985a5b1959605a1b6044820152606401610447565b600e80546000818152600a60205260408120600381018054336001600160a01b0319821681178355600d5460018501805488875563ffffffff191661ffff928316620100000261ffff191617918c16919091179055600284018890556001600160a81b031990911660ff60a01b199091161790558354929390929161126083612608565b919050555061126f33836118ab565b61127d8285606001516118c5565b61ffff851660009081526009602090815260409182902080546001600160a01b031916339081179091558251858152918201527f6606e4c8a88792ed4fd5159f9be235ca78e87fc1cbdc6158ea92d3ed3be9bf72910160405180910390a15050505050565b6003600d5461ffff166000908152600760208190526040909120015462010000900460ff16600381111561131857611318612621565b146113655760405162461bcd60e51b815260206004820152601860248201527f4576656e74206973207374696c6c206f6e2d676f696e672e00000000000000006044820152606401610447565b6000818152600a6020908152604091829020825160c08101845281548152600182015461ffff8082169483019490945262010000900490921692820192909252600282015460608201526003909101546001600160a01b03811660808301819052600160a01b90910460ff16151560a0830152331461141c5760405162461bcd60e51b8152602060048201526013602482015272139bdd081bdddb995c881bd9881d1a58dad95d606a1b6044820152606401610447565b8060a001511561145f5760405162461bcd60e51b815260206004820152600e60248201526d151bdad95b881c99599d5b99195960921b6044820152606401610447565b606081015160105460405163a9059cbb60e01b8152336004820152602481018390526001600160a01b039091169063a9059cbb906044016020604051808303816000875af11580156114b5573d6000803e3d6000fd5b505050506040513d601f19601f820116820180604052508101906114d99190612469565b61151b5760405162461bcd60e51b8152602060048201526013602482015272151bdad95b881c99599d5b990819985a5b1959606a1b6044820152606401610447565b61152483611915565b604080518281523360208201527fd86f3d2d747d5d831df461fda7bf64b7d9d57ff4b8b3fe58836776cf90a6bda591016107a4565b60006103f18261176c565b60006001600160a01b038216611590576040516322718ad960e21b815260006004820152602401610447565b506001600160a01b031660009081526003602052604090205490565b6060600180546107c090612389565b610877338383611950565b6115d1848484610b1b565b610ba0848484846119ef565b60606115e88261176c565b506000828152600660205260408120805461160290612389565b80601f016020809104026020016040519081016040528092919081815260200182805461162e90612389565b801561167b5780601f106116505761010080835404028352916020019161167b565b820191906000526020600020905b81548152906001019060200180831161165e57829003601f168201915b50505050509050600061169960408051602081019091526000815290565b905080516000036116ab575092915050565b8151156116dd5780826040516020016116c5929190612637565b60405160208183030381529060405292505050919050565b6116e684611b18565b949350505050565b6001600160a01b03918216600090815260056020908152604080832093909416825291909152205460ff1690565b60006001600160e01b031982166380ac58cd60e01b148061174d57506001600160e01b03198216635b5e139f60e01b145b806103f157506301ffc9a760e01b6001600160e01b03198316146103f1565b6000818152600260205260408120546001600160a01b0316806103f157604051637e27328960e01b815260048101849052602401610447565b610bc18383836001611b8d565b6000828152600260205260408120546001600160a01b03908116908316156117df576117df818486611c93565b6001600160a01b0381161561181d576117fc600085600080611b8d565b6001600160a01b038116600090815260036020526040902080546000190190555b6001600160a01b0385161561184c576001600160a01b0385166000908152600360205260409020805460010190555b60008481526002602052604080822080546001600160a01b0319166001600160a01b0389811691821790925591518793918516917fddf252ad1be2c89b69c2b068fc378daa952ba7f163c4a11628f55a4df523b3ef91a4949350505050565b610877828260405180602001604052806000815250611cf7565b60008281526006602052604090206118dd828261250e565b506040518281527ff8e1a15aba9398e019f0b49df1a4fde98ee17ae345cb5f6b5e2c27f5033e8ce79060200160405180910390a15050565b600061192460008360006117b2565b90506001600160a01b03811661087757604051637e27328960e01b815260048101839052602401610447565b6001600160a01b03821661198257604051630b61174360e31b81526001600160a01b0383166004820152602401610447565b6001600160a01b03838116600081815260056020908152604080832094871680845294825291829020805460ff191686151590811790915591519182527f17307eab39ab6107e8899845ad3d59bd9653f200f220920489ca2b5937696c31910160405180910390a3505050565b6001600160a01b0383163b15610ba057604051630a85bd0160e11b81526001600160a01b0384169063150b7a0290611a31903390889087908790600401612666565b6020604051808303816000875af1925050508015611a6c575060408051601f3d908101601f19168201909252611a69918101906126a3565b60015b611ad5573d808015611a9a576040519150601f19603f3d011682016040523d82523d6000602084013e611a9f565b606091505b508051600003611acd57604051633250574960e11b81526001600160a01b0385166004820152602401610447565b805181602001fd5b6001600160e01b03198116630a85bd0160e11b14611b1157604051633250574960e11b81526001600160a01b0385166004820152602401610447565b5050505050565b6060611b238261176c565b506000611b3b60408051602081019091526000815290565b90506000815111611b5b5760405180602001604052806000815250611b86565b80611b6584611d0e565b604051602001611b76929190612637565b6040516020818303038152906040525b9392505050565b8080611ba157506001600160a01b03821615155b15611c63576000611bb18461176c565b90506001600160a01b03831615801590611bdd5750826001600160a01b0316816001600160a01b031614155b8015611bf05750611bee81846116ee565b155b15611c195760405163a9fbf51f60e01b81526001600160a01b0384166004820152602401610447565b8115611c615783856001600160a01b0316826001600160a01b03167f8c5be1e5ebec7d5bd14f71427d1e84f3dd0314c0f7b2291e5b200ac8c7c3b92560405160405180910390a45b505b5050600090815260046020526040902080546001600160a01b0319166001600160a01b0392909216919091179055565b611c9e838383611da1565b610bc1576001600160a01b038316611ccc57604051637e27328960e01b815260048101829052602401610447565b60405163177e802f60e01b81526001600160a01b038316600482015260248101829052604401610447565b611d018383611e04565b610bc160008484846119ef565b60606000611d1b83611e69565b600101905060008167ffffffffffffffff811115611d3b57611d3b61206d565b6040519080825280601f01601f191660200182016040528015611d65576020820181803683370190505b5090508181016020015b600019016f181899199a1a9b1b9c1cb0b131b232b360811b600a86061a8153600a8504945084611d6f57509392505050565b60006001600160a01b038316158015906116e65750826001600160a01b0316846001600160a01b03161480611ddb5750611ddb84846116ee565b806116e65750506000908152600460205260409020546001600160a01b03908116911614919050565b6001600160a01b038216611e2e57604051633250574960e11b815260006004820152602401610447565b6000611e3c838360006117b2565b90506001600160a01b03811615610bc1576040516339e3563760e11b815260006004820152602401610447565b60008072184f03e93ff9f4daa797ed6e38ed64bf6a1f0160401b8310611ea85772184f03e93ff9f4daa797ed6e38ed64bf6a1f0160401b830492506040015b6d04ee2d6d415b85acef81000000008310611ed4576d04ee2d6d415b85acef8100000000830492506020015b662386f26fc100008310611ef257662386f26fc10000830492506010015b6305f5e1008310611f0a576305f5e100830492506008015b6127108310611f1e57612710830492506004015b60648310611f30576064830492506002015b600a83106103f15760010192915050565b6001600160e01b031981168114611f5757600080fd5b50565b600060208284031215611f6c57600080fd5b8135611b8681611f41565b600060208284031215611f8957600080fd5b5035919050565b60005b83811015611fab578181015183820152602001611f93565b50506000910152565b60008151808452611fcc816020860160208601611f90565b601f01601f19169290920160200192915050565b8281526040602082015260006116e66040830184611fb4565b80356001600160a01b038116811461201057600080fd5b919050565b60006020828403121561202757600080fd5b611b8682611ff9565b602081526000611b866020830184611fb4565b6000806040838503121561205657600080fd5b61205f83611ff9565b946020939093013593505050565b634e487b7160e01b600052604160045260246000fd5b600067ffffffffffffffff8084111561209e5761209e61206d565b604051601f8501601f19908116603f011681019082821181831017156120c6576120c661206d565b816040528093508581528686860111156120df57600080fd5b858560208301376000602087830101525050509392505050565b600082601f83011261210a57600080fd5b611b8683833560208501612083565b600080600080600060a0868803121561213157600080fd5b61213a86611ff9565b9450602086013567ffffffffffffffff8082111561215757600080fd5b61216389838a016120f9565b9550604088013591508082111561217957600080fd5b61218589838a016120f9565b9450606088013591508082111561219b57600080fd5b506121a8888289016120f9565b95989497509295608001359392505050565b6000806000606084860312156121cf57600080fd5b6121d884611ff9565b92506121e660208501611ff9565b9150604084013590509250925092565b803561ffff8116811461201057600080fd5b6000806000806080858703121561221e57600080fd5b843567ffffffffffffffff8082111561223657600080fd5b612242888389016120f9565b955060208701359450612257604088016121f6565b9350606087013591508082111561226d57600080fd5b5061227a878288016120f9565b91505092959194509250565b60006020828403121561229857600080fd5b611b86826121f6565b8015158114611f5757600080fd5b600080604083850312156122c257600080fd5b6122cb83611ff9565b915060208301356122db816122a1565b809150509250929050565b600080600080608085870312156122fc57600080fd5b61230585611ff9565b935061231360208601611ff9565b925060408501359150606085013567ffffffffffffffff81111561233657600080fd5b8501601f8101871361234757600080fd5b61227a87823560208401612083565b6000806040838503121561236957600080fd5b61237283611ff9565b915061238060208401611ff9565b90509250929050565b600181811c9082168061239d57607f821691505b6020821081036123bd57634e487b7160e01b600052602260045260246000fd5b50919050565b8381526000602060606020840152600085546123de81612389565b8060608701526080600180841660008114612400576001811461241c5761244c565b60ff19851660808a0152608084151560051b8a0101955061244c565b8a600052602060002060005b858110156124435781548b8201860152908301908801612428565b8a016080019650505b505050506001600160a01b03861660408601525091506116e69050565b60006020828403121561247b57600080fd5b8151611b86816122a1565b634e487b7160e01b600052601160045260246000fd5b61ffff8181168382160190808211156124b7576124b7612486565b5092915050565b601f821115610bc1576000816000526020600020601f850160051c810160208610156124e75750805b601f850160051c820191505b81811015612506578281556001016124f3565b505050505050565b815167ffffffffffffffff8111156125285761252861206d565b61253c816125368454612389565b846124be565b602080601f83116001811461257157600084156125595750858301515b600019600386901b1c1916600185901b178555612506565b600085815260208120601f198616915b828110156125a057888601518255948401946001909101908401612581565b50858210156125be5787850151600019600388901b60f8161c191681555b5050505050600190811b01905550565b600061ffff8083168181036125e5576125e5612486565b6001019392505050565b60006020828403121561260157600080fd5b5051919050565b60006001820161261a5761261a612486565b5060010190565b634e487b7160e01b600052602160045260246000fd5b60008351612649818460208801611f90565b83519083019061265d818360208801611f90565b01949350505050565b6001600160a01b038581168252841660208201526040810183905260806060820181905260009061269990830184611fb4565b9695505050505050565b6000602082840312156126b557600080fd5b8151611b8681611f4156fea26469706673582212206c09342e60fa7cd375959e09831c656a0c496fc1e87f09bbd4560b9f8a7f63f664736f6c63430008180033a26469706673582212202c5015448904e0c0d792bbd1ed81e9d0434fb32586f599038d81ba17a2c028c764736f6c63430008180033",
  "linkReferences": {},
  "deployedLinkReferences": {}
}