{
  "_format": "hh-sol-artifact-1",
  "contractName": "EventManagerFactory",
  "sourceName": "contracts/EventManagerFactory.sol",
  "abi": [
    {
      "anonymous": false,
      "inputs": [
        {
          "indexed": false,
          "internalType": "uint256",
          "name": "eventId",
          "type": "uint256"
        },
        {
          "indexed": false,
          "internalType": "address",
          "name": "organizer",
          "type": "address"
        },
        {
          "indexed": false,
          "internalType": "string",
          "name": "name",
          "type": "string"
        },
        {
          "indexed": false,
          "internalType": "string",
          "name": "description",
          "type": "string"
        },
        {
          "indexed": false,
          "internalType": "string",
          "name": "venue",
          "type": "string"
        },
        {
          "indexed": false,
          "internalType": "string",
          "name": "image",
          "type": "string"
        },
        {
          "indexed": false,
          "internalType": "uint256",
          "name": "startDate",
          "type": "uint256"
        },
        {
          "indexed": false,
          "internalType": "uint256",
          "name": "endDate",
          "type": "uint256"
        },
        {
          "indexed": false,
          "internalType": "uint16",
          "name": "totalTicketAvailable",
          "type": "uint16"
        }
      ],
      "name": "EventCreated",
      "type": "event"
    },
    {
      "inputs": [
        {
          "internalType": "uint256",
          "name": "",
          "type": "uint256"
        }
      ],
      "name": "IdToEvents",
      "outputs": [
        {
          "internalType": "contract EventContract",
          "name": "",
          "type": "address"
        }
      ],
      "stateMutability": "view",
      "type": "function"
    },
    {
      "inputs": [
        {
          "internalType": "address",
          "name": "paymentTokenAddress",
          "type": "address"
        },
        {
          "internalType": "string",
          "name": "_NftTokenName",
          "type": "string"
        },
        {
          "internalType": "string",
          "name": "_NftSymbol",
          "type": "string"
        },
        {
          "internalType": "string",
          "name": "_name",
          "type": "string"
        },
        {
          "internalType": "string",
          "name": "_description",
          "type": "string"
        },
        {
          "internalType": "string",
          "name": "_venue",
          "type": "string"
        },
        {
          "internalType": "string",
          "name": "_image",
          "type": "string"
        },
        {
          "internalType": "uint256",
          "name": "_startDate",
          "type": "uint256"
        },
        {
          "internalType": "uint256",
          "name": "_endDate",
          "type": "uint256"
        },
        {
          "internalType": "uint16",
          "name": "_totalTicketAvailable",
          "type": "uint16"
        }
      ],
      "name": "createEvent",
      "outputs": [
        {
          "internalType": "contract EventContract",
          "name": "",
          "type": "address"
        }
      ],
      "stateMutability": "nonpayable",
      "type": "function"
    },
    {
      "inputs": [],
      "name": "eventCounter",
      "outputs": [
        {
          "internalType": "uint256",
          "name": "",
          "type": "uint256"
        }
      ],
      "stateMutability": "view",
      "type": "function"
    },
    {
      "inputs": [],
      "name": "getEvents",
      "outputs": [
        {
          "internalType": "contract EventContract[]",
          "name": "",
          "type": "address[]"
        }
      ],
      "stateMutability": "view",
      "type": "function"
    },
    {
      "inputs": [
        {
          "internalType": "address",
          "name": "",
          "type": "address"
        },
        {
          "internalType": "uint256",
          "name": "",
          "type": "uint256"
        }
      ],
      "name": "organizerEvent",
      "outputs": [
        {
          "internalType": "contract EventContract",
          "name": "",
          "type": "address"
        }
      ],
      "stateMutability": "view",
      "type": "function"
    }
  ],
  "bytecode": "0x608060405234801561001057600080fd5b5061459b806100206000396000f3fe60806040523480156200001157600080fd5b50600436106200005e5760003560e01c80632ce00f311462000063578063404aa8f9146200009757806352c55db914620000b0578063531b74ab14620000c9578063773b678f14620000f5575b600080fd5b6200007a62000074366004620003d6565b6200010c565b6040516001600160a01b0390911681526020015b60405180910390f35b620000a162000250565b6040516200008e91906200051a565b620000ba60005481565b6040519081526020016200008e565b6200007a620000da36600462000569565b6002602052600090815260409020546001600160a01b031681565b6200007a6200010636600462000583565b620002b4565b600080338c8c8c8c8c8c8c8c8c8c6040516200012890620002ed565b6200013e9b9a99989796959493929190620005f8565b604051809103906000f0801580156200015b573d6000803e3d6000fd5b5060008054919250806200016f83620006c6565b909155505060008054815260026020908152604080832080546001600160a01b0386166001600160a01b031991821681179092556001805480820182557fb10e2d527612073b26eecdfd717e6a320cf44b4afac2b0732d9fcbe2b7fa0cf601805483168417905533808752600386528487208054928301815587529486200180549091169091179055915491517fe4e52e7a659645817129be6ff9605a97fb46c43bd1f251d0023b4dc9ec6e356192620002399290918d908d908d908d908d908d908d90620006ee565b60405180910390a19b9a5050505050505050505050565b60606001805480602002602001604051908101604052809291908181526020018280548015620002aa57602002820191906000526020600020905b81546001600160a01b031681526001909101906020018083116200028b575b5050505050905090565b60036020528160005260406000208181548110620002d157600080fd5b6000918252602090912001546001600160a01b03169150829050565b613de1806200078583390190565b80356001600160a01b03811681146200031357600080fd5b919050565b634e487b7160e01b600052604160045260246000fd5b600082601f8301126200034057600080fd5b813567ffffffffffffffff808211156200035e576200035e62000318565b604051601f8301601f19908116603f0116810190828211818310171562000389576200038962000318565b81604052838152866020858801011115620003a357600080fd5b836020870160208301376000602085830101528094505050505092915050565b803561ffff811681146200031357600080fd5b6000806000806000806000806000806101408b8d031215620003f757600080fd5b620004028b620002fb565b995060208b013567ffffffffffffffff808211156200042057600080fd5b6200042e8e838f016200032e565b9a5060408d01359150808211156200044557600080fd5b620004538e838f016200032e565b995060608d01359150808211156200046a57600080fd5b620004788e838f016200032e565b985060808d01359150808211156200048f57600080fd5b6200049d8e838f016200032e565b975060a08d0135915080821115620004b457600080fd5b620004c28e838f016200032e565b965060c08d0135915080821115620004d957600080fd5b50620004e88d828e016200032e565b94505060e08b013592506101008b01359150620005096101208c01620003c3565b90509295989b9194979a5092959850565b6020808252825182820181905260009190848201906040850190845b818110156200055d5783516001600160a01b03168352928401929184019160010162000536565b50909695505050505050565b6000602082840312156200057c57600080fd5b5035919050565b600080604083850312156200059757600080fd5b620005a283620002fb565b946020939093013593505050565b6000815180845260005b81811015620005d857602081850181015186830182015201620005ba565b506000602082860101526020601f19601f83011685010191505092915050565b6001600160a01b038c811682528b1660208201526000610160806040840152620006258184018d620005b0565b905082810360608401526200063b818c620005b0565b9050828103608084015262000651818b620005b0565b905082810360a084015262000667818a620005b0565b905082810360c08401526200067d8189620005b0565b905082810360e0840152620006938188620005b0565b9150508461010083015283610120830152620006b661014083018461ffff169052565b9c9b505050505050505050505050565b600060018201620006e757634e487b7160e01b600052601160045260246000fd5b5060010190565b8981526001600160a01b0389166020820152610120604082018190526000906200071b8382018b620005b0565b9050828103606084015262000731818a620005b0565b90508281036080840152620007478189620005b0565b905082810360a08401526200075d8188620005b0565b60c0840196909652505060e081019290925261ffff1661010090910152969550505050505056fe608060405260016008553480156200001657600080fd5b5060405162003de138038062003de1833981016040819052620000399162000517565b8888600062000049838262000726565b50600162000058828262000726565b5050506000875111620000a55760405162461bcd60e51b815260206004820152601060248201526f456e746572204576656e74204e616d6560801b60448201526064015b60405180910390fd5b6000895111620000f85760405162461bcd60e51b815260206004820152601360248201527f456e746572204e6674546f6b656e4e616d65200000000000000000000000000060448201526064016200009c565b60008851116200013e5760405162461bcd60e51b815260206004820152601060248201526f115b9d195c8817d3999d14de5b589bdb60821b60448201526064016200009c565b6000865111620001915760405162461bcd60e51b815260206004820152601760248201527f456e746572204576656e74204465736372697074696f6e00000000000000000060448201526064016200009c565b6000855111620001d85760405162461bcd60e51b8152602060048201526011602482015270456e746572204576656e742056656e756560781b60448201526064016200009c565b60008451116200021f5760405162461bcd60e51b8152602060048201526011602482015270456e746572204576656e7420496d61676560781b60448201526064016200009c565b60008311620002715760405162461bcd60e51b815260206004820152601860248201527f456e74657220612076616c69642053746172742044617465000000000000000060448201526064016200009c565b60008211620002c35760405162461bcd60e51b815260206004820152601660248201527f456e74657220612076616c696420456e6420446174650000000000000000000060448201526064016200009c565b81831115620003155760405162461bcd60e51b815260206004820152601b60248201527f496e76616c696420737461727420616e6420656e6420646174652e000000000060448201526064016200009c565b60008161ffff16116200036b5760405162461bcd60e51b815260206004820152601660248201527f456e746572207469636b657420617661696c61626c650000000000000000000060448201526064016200009c565b601980546001600160a01b0319166001600160a01b038c8116919091179091556009805462010000600160b01b03191662010000928e1692909202919091179055600a620003ba888262000726565b50600b620003c9878262000726565b50600c620003d8868262000726565b50600d620003e7858262000726565b50600e92909255600f556010805461ffff191661ffff90921691909117905550506013805460ff1916905550620007f2945050505050565b80516001600160a01b03811681146200043757600080fd5b919050565b634e487b7160e01b600052604160045260246000fd5b600082601f8301126200046457600080fd5b81516001600160401b03808211156200048157620004816200043c565b604051601f8301601f19908116603f01168101908282118183101715620004ac57620004ac6200043c565b8160405283815260209250866020858801011115620004ca57600080fd5b600091505b83821015620004ee5785820183015181830184015290820190620004cf565b6000602085830101528094505050505092915050565b805161ffff811681146200043757600080fd5b60008060008060008060008060008060006101608c8e0312156200053a57600080fd5b620005458c6200041f565b9a506200055560208d016200041f565b60408d0151909a506001600160401b038111156200057257600080fd5b620005808e828f0162000452565b60608e0151909a5090506001600160401b038111156200059f57600080fd5b620005ad8e828f0162000452565b60808e015190995090506001600160401b03811115620005cc57600080fd5b620005da8e828f0162000452565b60a08e015190985090506001600160401b03811115620005f957600080fd5b620006078e828f0162000452565b60c08e015190975090506001600160401b038111156200062657600080fd5b620006348e828f0162000452565b60e08e015190965090506001600160401b038111156200065357600080fd5b620006618e828f0162000452565b9450506101008c015192506101208c01519150620006836101408d0162000504565b90509295989b509295989b9093969950565b600181811c90821680620006aa57607f821691505b602082108103620006cb57634e487b7160e01b600052602260045260246000fd5b50919050565b601f82111562000721576000816000526020600020601f850160051c81016020861015620006fc5750805b601f850160051c820191505b818110156200071d5782815560010162000708565b5050505b505050565b81516001600160401b038111156200074257620007426200043c565b6200075a8162000753845462000695565b84620006d1565b602080601f831160018114620007925760008415620007795750858301515b600019600386901b1c1916600185901b1785556200071d565b600085815260208120601f198616915b82811015620007c357888601518255948401946001909101908401620007a2565b5085821015620007e25787850151600019600388901b60f8161c191681555b5050505050600190811b01905550565b6135df80620008026000396000f3fe608060405234801561001057600080fd5b506004361061025e5760003560e01c80636120326511610146578063a22cb465116100c3578063d9c38cbf11610087578063d9c38cbf146105b6578063e22bda35146105c9578063e985e9c5146105d1578063f498f3d8146105e4578063faf04f79146105f2578063fc0c546a146105fb57600080fd5b8063a22cb4651461056b578063b88d4fde1461057e578063bf2d9e0b14610591578063c24a0f8b1461059a578063c87b56dd146105a357600080fd5b80638858287b1161010a5780638858287b1461051c5780639434571b1461052a57806395d89b4114610532578063982f6b671461053a578063a20dcd7d1461056357600080fd5b806361203265146104b15780636352211e146104ca578063644af77e146104dd57806370a08231146105015780638043c9c01461051457600080fd5b806323b872dd116101df5780634b548d71116101a35780634b548d71146103c95780634eefee34146103dc57806350b44712146103ef5780635b7baf64146104745780635d1bd1af146104875780636031a52f146104a857600080fd5b806323b872dd1461036057806327e30c3614610373578063312c58661461039b57806342842e0e146103a357806342859657146103b657600080fd5b8063081812fc11610226578063081812fc146102de578063095ea7b3146103095780630b97bc861461031c57806311a18ecf14610333578063200d2ed21461034657600080fd5b806301ffc9a71461026357806303135f031461028b578063054ae7df1461029557806305750a8a146102b657806306fdde03146102c9575b600080fd5b610276610271366004612c2a565b61060e565b60405190151581526020015b60405180910390f35b610293610639565b005b6102a86102a3366004612c47565b610710565b604051610282929190612cb0565b6102936102c4366004612ce5565b610969565b6102d1610c07565b6040516102829190612d00565b6102f16102ec366004612c47565b610c99565b6040516001600160a01b039091168152602001610282565b610293610317366004612d13565b610cc2565b610325600e5481565b604051908152602001610282565b610293610341366004612de9565b610cd1565b6013546103539060ff1681565b6040516102829190612ea0565b61029361036e366004612eba565b6110c2565b610386610381366004612ce5565b61114d565b60405161028299989796959493929190612ef6565b6102d1611346565b6102936103b1366004612eba565b6113d4565b6102936103c4366004612ce5565b6113f4565b6102936103d7366004612f9d565b611655565b6102936103ea36600461301b565b611937565b61043e6103fd366004612c47565b6016602052600090815260409020805460018201546002830154600390930154919261ffff909116916001600160a01b03811690600160a01b900460ff1685565b6040805195865261ffff9094166020860152928401919091526001600160a01b031660608301521515608082015260a001610282565b610293610482366004612c47565b611ded565b6010546104959061ffff1681565b60405161ffff9091168152602001610282565b61032560085481565b6009546102f1906201000090046001600160a01b031681565b6102f16104d8366004612c47565b612011565b6104f06104eb36600461301b565b61201c565b604051610282959493929190613036565b61032561050f366004612ce5565b612168565b6102d16121b0565b6009546104959061ffff1681565b6102d16121bd565b6102d16121ca565b6102f161054836600461301b565b6015602052600090815260409020546001600160a01b031681565b6102936121d9565b61029361057936600461308e565b61224b565b61029361058c3660046130c5565b612256565b61032560125481565b610325600f5481565b6102d16105b1366004612c47565b61226d565b6103866105c436600461301b565b61237e565b6102d16123b7565b6102766105df366004613135565b6123c4565b6007546104959061ffff1681565b61032560115481565b6019546102f1906001600160a01b031681565b60006001600160e01b03198216632483248360e11b14806106335750610633826123f2565b92915050565b6009546201000090046001600160a01b031633146106725760405162461bcd60e51b815260040161066990613168565b60405180910390fd5b600360135460ff16600381111561068b5761068b612e8a565b036106d85760405162461bcd60e51b815260206004820152601860248201527f4576656e7420616c7265616479207465726d696e6174656400000000000000006044820152606401610669565b6013805460ff191660031790556040517f06a7dcfdb0fc662ea1022debaf830d0576a105a7c6996e3cfa88f9cbf0d4350e90600090a1565b60008181526016602052604081205460609082036107645760405162461bcd60e51b8152602060048201526011602482015270125b9d985b1a5908151a58dad95d081251607a1b6044820152606401610669565b3361076e84612011565b6001600160a01b0316146107c45760405162461bcd60e51b815260206004820152601a60248201527f4164647265737320646f6573206e6f742068617665204e46542e0000000000006044820152606401610669565b600083815260166020908152604091829020825160a08101845281548152600182015461ffff16928101929092526002810154928201929092526003909101546001600160a01b0381166060830152600160a01b900460ff1615801560808301526108635760405162461bcd60e51b815260206004820152600f60248201526e151a58dad95d081499599d5b991959608a1b6044820152606401610669565b60208082015161ffff1660009081526014909152604090819020905185917f7fd23f6ad00d3f0f5eed2692b87e05840d25373c796196e43bd3783bac1bfd09916108af919033906131ca565b60405180910390a260208082015161ffff166000908152601490915260409020805485919081906108df90613190565b80601f016020809104026020016040519081016040528092919081815260200182805461090b90613190565b80156109585780601f1061092d57610100808354040283529160200191610958565b820191906000526020600020905b81548152906001019060200180831161093b57829003601f168201915b505050505090509250925050915091565b6009546201000090046001600160a01b031633146109995760405162461bcd60e51b815260040161066990613168565b6001600160a01b038116600090815260176020526040812054600160a01b900461ffff1690036109fe5760405162461bcd60e51b815260206004820152601060248201526f15995b991bdc88139bdd08119bdd5b9960821b6044820152606401610669565b6001600160a01b03811660009081526017602052604090206001600582015462010000900460ff166001811115610a3757610a37612e8a565b03610a785760405162461bcd60e51b815260206004820152601160248201527015995b9bd91c8815195c9b5a5b985d1959607a1b6044820152606401610669565b600581015460ff1615610ac95760405162461bcd60e51b81526020600482015260196024820152782b32b73237b91029b2b93b34b1b29021b7b73334b936b2b21760391b6044820152606401610669565b6005810154610100900460ff1615610b1a5760405162461bcd60e51b81526020600482015260146024820152732b32b73237b91020b63932b0b23c902830b4b21760611b6044820152606401610669565b60058101805461ffff191661010117905560048101548015610bb057601954825460405163a9059cbb60e01b81526001600160a01b0391821660048201526024810184905291169063a9059cbb906044016020604051808303816000875af1158015610b8a573d6000803e3d6000fd5b505050506040513d601f19601f82011682018060405250810190610bae9190613267565b505b8154604080516001600160a01b038316815260016020820152600160a01b90920461ffff16917ff2a30595b21672158055d487e8406fd79e63b6cb9dbdac27e49be15feb77b10b91015b60405180910390a2505050565b606060008054610c1690613190565b80601f0160208091040260200160405190810160405280929190818152602001828054610c4290613190565b8015610c8f5780601f10610c6457610100808354040283529160200191610c8f565b820191906000526020600020905b815481529060010190602001808311610c7257829003601f168201915b5050505050905090565b6000610ca482612442565b506000828152600460205260409020546001600160a01b0316610633565b610ccd82823361247b565b5050565b6009546201000090046001600160a01b03163314610d015760405162461bcd60e51b815260040161066990613168565b6001600160a01b038516610d505760405162461bcd60e51b8152602060048201526016602482015275496e76616c69642056656e646f72204164647265737360501b6044820152606401610669565b6000845111610d985760405162461bcd60e51b815260206004820152601460248201527356656e646f72206e616d6520697320656d70747960601b6044820152606401610669565b6000835111610de15760405162461bcd60e51b815260206004820152601560248201527456656e646f7220696d61676520697320656d70747960581b6044820152606401610669565b6000825111610e325760405162461bcd60e51b815260206004820152601c60248201527f53657276696365206465736372697074696f6e20697320656d707479000000006044820152606401610669565b6001600160a01b038516600090815260176020526040902054600160a01b900461ffff1615610e9a5760405162461bcd60e51b815260206004820152601460248201527315995b991bdc88185b1c9958591e48185919195960621b6044820152606401610669565b600954600090610eaf9061ffff16600161329a565b6001600160a01b0387166000908152601760205260409020805461ffff60a01b1916600160a01b61ffff84160217815590915060018101610ef0878261330c565b5060028101610eff868261330c565b5060038101610f0e858261330c565b506004810183905580546001600160a01b0388166001600160a01b03199182168117835560058301805462ff00001916905561ffff84811660009081526018602052604090208054938416831781558454600160a01b908190049092169091026001600160b01b03199093169091179190911781558190600181810190610f97908401826133cc565b50600281810190610faa908401826133cc565b50600381810190610fbd908401826133cc565b506004828101549082015560058083018054918301805460ff938416151560ff19821681178355835461010090819004861615150261ff001990911661ffff1990921691909117178082559154620100009081900490931692909162ff000019169083600181111561103157611031612e8a565b0217905550506009805461ffff169150600061104c8361349f565b91906101000a81548161ffff021916908361ffff160217905550508161ffff167fd18845e21149a91de2fd5316a0fe591546d1a1853cb17777e2d67f1db3b9ff8188856040516110b19291906001600160a01b03929092168252602082015260400190565b60405180910390a250505050505050565b6001600160a01b0382166110ec57604051633250574960e11b815260006004820152602401610669565b60006110f9838333612488565b9050836001600160a01b0316816001600160a01b031614611147576040516364283d7b60e01b81526001600160a01b0380861660048301526024820184905282166044820152606401610669565b50505050565b601760205260009081526040902080546001820180546001600160a01b03831693600160a01b90930461ffff1692919061118690613190565b80601f01602080910402602001604051908101604052809291908181526020018280546111b290613190565b80156111ff5780601f106111d4576101008083540402835291602001916111ff565b820191906000526020600020905b8154815290600101906020018083116111e257829003601f168201915b50505050509080600201805461121490613190565b80601f016020809104026020016040519081016040528092919081815260200182805461124090613190565b801561128d5780601f106112625761010080835404028352916020019161128d565b820191906000526020600020905b81548152906001019060200180831161127057829003601f168201915b5050505050908060030180546112a290613190565b80601f01602080910402602001604051908101604052809291908181526020018280546112ce90613190565b801561131b5780601f106112f05761010080835404028352916020019161131b565b820191906000526020600020905b8154815290600101906020018083116112fe57829003601f168201915b50505050600483015460059093015491929160ff808216925061010082048116916201000090041689565b600d805461135390613190565b80601f016020809104026020016040519081016040528092919081815260200182805461137f90613190565b80156113cc5780601f106113a1576101008083540402835291602001916113cc565b820191906000526020600020905b8154815290600101906020018083116113af57829003601f168201915b505050505081565b6113ef83838360405180602001604052806000815250612256565b505050565b6009546201000090046001600160a01b031633146114245760405162461bcd60e51b815260040161066990613168565b6001600160a01b038116600090815260176020526040812054600160a01b900461ffff1690036114895760405162461bcd60e51b815260206004820152601060248201526f15995b991bdc88139bdd08119bdd5b9960821b6044820152606401610669565b60016001600160a01b03821660009081526017602052604090206005015462010000900460ff1660018111156114c1576114c1612e8a565b0361150e5760405162461bcd60e51b815260206004820152601b60248201527f56656e646f722041677265656d656e74205465726d696e6174656400000000006044820152606401610669565b6001600160a01b038116600090815260176020526040902060050154610100900460ff16156115765760405162461bcd60e51b81526020600482015260146024820152732b32b73237b91020b63932b0b23c902830b4b21760611b6044820152606401610669565b6001600160a01b03811660009081526017602052604090206005015460ff16156115de5760405162461bcd60e51b81526020600482015260196024820152782b32b73237b91029b2b93b34b1b29021b7b73334b936b2b21760391b6044820152606401610669565b6001600160a01b03811660009081526017602052604090206005810180546001919062ff00001916620100008302179055508054604051600160a01b90910461ffff1681527f102acbfce99771dfe1e691dba311e5c919e33a8c7d9d097b390595b7496dda9b906020015b60405180910390a15050565b6009546201000090046001600160a01b031633146116855760405162461bcd60e51b815260040161066990613168565b60008451116116d65760405162461bcd60e51b815260206004820152601760248201527f5469636b6574206e616d652069732072657175697265640000000000000000006044820152606401610669565b60008261ffff16116117415760405162461bcd60e51b815260206004820152602e60248201527f546f74616c207469636b65747320617661696c61626c65206d7573742062652060448201526d067726561746572207468616e20360941b6064820152608401610669565b600081511161178b5760405162461bcd60e51b8152602060048201526016602482015275151a58dad95d08155492481a5cc81c995c5d5a5c995960521b6044820152606401610669565b6007546000906117a090849061ffff1661329a565b6011546010549192506117b69161ffff166134c0565b8161ffff1611156118095760405162461bcd60e51b815260206004820152601a60248201527f4578636565647320746f74616c207469636b6574206c696d69740000000000006044820152606401610669565b60075460009060149082906118239061ffff16600161329a565b61ffff1681526020810191909152604001600020905080611844878261330c565b50600181018590556003810161185a848261330c565b5060028101805461ffff808716620100000263ffff000019909216919091179091556007805490911690600061188f8361349f565b91906101000a81548161ffff021916908361ffff1602179055505083601060008282829054906101000a900461ffff166118c991906134d3565b82546101009290920a61ffff81810219909316918316021790915560075460408051918316825260208201899052918716918101919091527f5f6199a78bf978fcd63f660aa6bb9eb044077c994cb141c830d96362bd76711e915060600160405180910390a1505050505050565b336119765760405162461bcd60e51b815260206004820152600f60248201526e496e76616c6964204164647265737360881b6044820152606401610669565b61ffff81166000908152601460205260408120600301805461199790613190565b9050116119d85760405162461bcd60e51b815260206004820152600f60248201526e125b9d985b1a5908151a595c881251608a1b6044820152606401610669565b61ffff8116600090815260146020526040808220815160a08101909252805482908290611a0490613190565b80601f0160208091040260200160405190810160405280929190818152602001828054611a3090613190565b8015611a7d5780601f10611a5257610100808354040283529160200191611a7d565b820191906000526020600020905b815481529060010190602001808311611a6057829003601f168201915b505050918352505060018201546020820152600282015461ffff808216604084015262010000909104166060820152600382018054608090920191611ac190613190565b80601f0160208091040260200160405190810160405280929190818152602001828054611aed90613190565b8015611b3a5780601f10611b0f57610100808354040283529160200191611b3a565b820191906000526020600020905b815481529060010190602001808311611b1d57829003601f168201915b5050509190925250505060208101516019546040516370a0823160e01b8152336004820152929350909182916001600160a01b0316906370a0823190602401602060405180830381865afa158015611b96573d6000803e3d6000fd5b505050506040513d601f19601f82011682018060405250810190611bba91906134ee565b1015611c085760405162461bcd60e51b815260206004820152601a60248201527f496e73756666696369656e7420746f6b656e2062616c616e63650000000000006044820152606401610669565b6019546040516323b872dd60e01b8152336004820152306024820152604481018390526001600160a01b03909116906323b872dd906064016020604051808303816000875af1158015611c5f573d6000803e3d6000fd5b505050506040513d601f19601f82011682018060405250810190611c839190613267565b611cc75760405162461bcd60e51b8152602060048201526015602482015274151bdad95b881d1c985b9cd9995c8819985a5b1959605a1b6044820152606401610669565b8060126000828254611cd991906134c0565b92505081905550600160116000828254611cf391906134c0565b90915550506008546000818152601660205260409081902060038101805484835560018301805461ffff191661ffff8a16179055600283018690556001600160a81b0319163360ff60a01b1916179055908401805190611d528261349f565b61ffff1690525060088054906000611d6983613507565b9190505550611d783383612583565b611d8682856080015161259d565b61ffff851660008181526015602090815260409182902080546001600160a01b0319163390811790915582519384529083015283917fc9ed965ae0252b2f9fdbd3835fe5789e5cc43b7dc07639b417e77b0c3589af02910160405180910390a25050505050565b600360135460ff166003811115611e0657611e06612e8a565b14611e535760405162461bcd60e51b815260206004820152601860248201527f4576656e74206973207374696c6c206f6e2d676f696e672e00000000000000006044820152606401610669565b600081815260166020526040902060038101546001600160a01b03163314611eb35760405162461bcd60e51b8152602060048201526013602482015272139bdd081bdddb995c881bd9881d1a58dad95d606a1b6044820152606401610669565b6003810154600160a01b900460ff1615611f005760405162461bcd60e51b815260206004820152600e60248201526d151bdad95b881c99599d5b99195960921b6044820152606401610669565b60038101805460ff60a01b1916600160a01b179055600281015460195460405163a9059cbb60e01b8152336004820152602481018390526001600160a01b039091169063a9059cbb906044016020604051808303816000875af1158015611f6b573d6000803e3d6000fd5b505050506040513d601f19601f82011682018060405250810190611f8f9190613267565b611fd15760405162461bcd60e51b8152602060048201526013602482015272151bdad95b881c99599d5b990819985a5b1959606a1b6044820152606401610669565b611fda836125e6565b6040805182815233602082015284917ff58965c0ecab72de15cc9f4ded64898d9deb1a2f1a7acdf867187295e5dfaf129101610bfa565b600061063382612442565b60146020526000908152604090208054819061203790613190565b80601f016020809104026020016040519081016040528092919081815260200182805461206390613190565b80156120b05780601f10612085576101008083540402835291602001916120b0565b820191906000526020600020905b81548152906001019060200180831161209357829003601f168201915b505050600184015460028501546003860180549596929561ffff8084169650620100009093049092169350906120e590613190565b80601f016020809104026020016040519081016040528092919081815260200182805461211190613190565b801561215e5780601f106121335761010080835404028352916020019161215e565b820191906000526020600020905b81548152906001019060200180831161214157829003601f168201915b5050505050905085565b60006001600160a01b038216612194576040516322718ad960e21b815260006004820152602401610669565b506001600160a01b031660009081526003602052604090205490565b600a805461135390613190565b600b805461135390613190565b606060018054610c1690613190565b6009546201000090046001600160a01b031633146122095760405162461bcd60e51b815260040161066990613168565b600e54421015801561221d5750600f544211155b15612231576013805460ff19166001179055565b600f54421115612249576013805460ff191660021790555b565b610ccd338383612621565b6122618484846110c2565b611147848484846126c0565b606061227882612442565b506000828152600660205260408120805461229290613190565b80601f01602080910402602001604051908101604052809291908181526020018280546122be90613190565b801561230b5780601f106122e05761010080835404028352916020019161230b565b820191906000526020600020905b8154815290600101906020018083116122ee57829003601f168201915b50505050509050600061232960408051602081019091526000815290565b9050805160000361233b575092915050565b81511561236d578082604051602001612355929190613520565b60405160208183030381529060405292505050919050565b612376846127e9565b949350505050565b601860205260009081526040902080546001820180546001600160a01b03831693600160a01b90930461ffff1692919061118690613190565b600c805461135390613190565b6001600160a01b03918216600090815260056020908152604080832093909416825291909152205460ff1690565b60006001600160e01b031982166380ac58cd60e01b148061242357506001600160e01b03198216635b5e139f60e01b145b8061063357506301ffc9a760e01b6001600160e01b0319831614610633565b6000818152600260205260408120546001600160a01b03168061063357604051637e27328960e01b815260048101849052602401610669565b6113ef838383600161285d565b6000828152600260205260408120546001600160a01b03908116908316156124b5576124b5818486612963565b6001600160a01b038116156124f3576124d260008560008061285d565b6001600160a01b038116600090815260036020526040902080546000190190555b6001600160a01b03851615612522576001600160a01b0385166000908152600360205260409020805460010190555b60008481526002602052604080822080546001600160a01b0319166001600160a01b0389811691821790925591518793918516917fddf252ad1be2c89b69c2b068fc378daa952ba7f163c4a11628f55a4df523b3ef91a490505b9392505050565b610ccd8282604051806020016040528060008152506129c7565b60008281526006602052604090206125b5828261330c565b506040518281527ff8e1a15aba9398e019f0b49df1a4fde98ee17ae345cb5f6b5e2c27f5033e8ce790602001611649565b60006125f56000836000612488565b90506001600160a01b038116610ccd57604051637e27328960e01b815260048101839052602401610669565b6001600160a01b03821661265357604051630b61174360e31b81526001600160a01b0383166004820152602401610669565b6001600160a01b03838116600081815260056020908152604080832094871680845294825291829020805460ff191686151590811790915591519182527f17307eab39ab6107e8899845ad3d59bd9653f200f220920489ca2b5937696c31910160405180910390a3505050565b6001600160a01b0383163b1561114757604051630a85bd0160e11b81526001600160a01b0384169063150b7a029061270290339088908790879060040161354f565b6020604051808303816000875af192505050801561273d575060408051601f3d908101601f1916820190925261273a9181019061358c565b60015b6127a6573d80801561276b576040519150601f19603f3d011682016040523d82523d6000602084013e612770565b606091505b50805160000361279e57604051633250574960e11b81526001600160a01b0385166004820152602401610669565b805181602001fd5b6001600160e01b03198116630a85bd0160e11b146127e257604051633250574960e11b81526001600160a01b0385166004820152602401610669565b5050505050565b60606127f482612442565b50600061280c60408051602081019091526000815290565b9050600081511161282c576040518060200160405280600081525061257c565b80612836846129de565b604051602001612847929190613520565b6040516020818303038152906040529392505050565b808061287157506001600160a01b03821615155b1561293357600061288184612442565b90506001600160a01b038316158015906128ad5750826001600160a01b0316816001600160a01b031614155b80156128c057506128be81846123c4565b155b156128e95760405163a9fbf51f60e01b81526001600160a01b0384166004820152602401610669565b81156129315783856001600160a01b0316826001600160a01b03167f8c5be1e5ebec7d5bd14f71427d1e84f3dd0314c0f7b2291e5b200ac8c7c3b92560405160405180910390a45b505b5050600090815260046020526040902080546001600160a01b0319166001600160a01b0392909216919091179055565b61296e838383612a71565b6113ef576001600160a01b03831661299c57604051637e27328960e01b815260048101829052602401610669565b60405163177e802f60e01b81526001600160a01b038316600482015260248101829052604401610669565b6129d18383612ad4565b6113ef60008484846126c0565b606060006129eb83612b39565b600101905060008167ffffffffffffffff811115612a0b57612a0b612d3d565b6040519080825280601f01601f191660200182016040528015612a35576020820181803683370190505b5090508181016020015b600019016f181899199a1a9b1b9c1cb0b131b232b360811b600a86061a8153600a8504945084612a3f57509392505050565b60006001600160a01b038316158015906123765750826001600160a01b0316846001600160a01b03161480612aab5750612aab84846123c4565b806123765750506000908152600460205260409020546001600160a01b03908116911614919050565b6001600160a01b038216612afe57604051633250574960e11b815260006004820152602401610669565b6000612b0c83836000612488565b90506001600160a01b038116156113ef576040516339e3563760e11b815260006004820152602401610669565b60008072184f03e93ff9f4daa797ed6e38ed64bf6a1f0160401b8310612b785772184f03e93ff9f4daa797ed6e38ed64bf6a1f0160401b830492506040015b6d04ee2d6d415b85acef81000000008310612ba4576d04ee2d6d415b85acef8100000000830492506020015b662386f26fc100008310612bc257662386f26fc10000830492506010015b6305f5e1008310612bda576305f5e100830492506008015b6127108310612bee57612710830492506004015b60648310612c00576064830492506002015b600a83106106335760010192915050565b6001600160e01b031981168114612c2757600080fd5b50565b600060208284031215612c3c57600080fd5b813561257c81612c11565b600060208284031215612c5957600080fd5b5035919050565b60005b83811015612c7b578181015183820152602001612c63565b50506000910152565b60008151808452612c9c816020860160208601612c60565b601f01601f19169290920160200192915050565b8281526040602082015260006123766040830184612c84565b80356001600160a01b0381168114612ce057600080fd5b919050565b600060208284031215612cf757600080fd5b61257c82612cc9565b60208152600061257c6020830184612c84565b60008060408385031215612d2657600080fd5b612d2f83612cc9565b946020939093013593505050565b634e487b7160e01b600052604160045260246000fd5b600067ffffffffffffffff80841115612d6e57612d6e612d3d565b604051601f8501601f19908116603f01168101908282118183101715612d9657612d96612d3d565b81604052809350858152868686011115612daf57600080fd5b858560208301376000602087830101525050509392505050565b600082601f830112612dda57600080fd5b61257c83833560208501612d53565b600080600080600060a08688031215612e0157600080fd5b612e0a86612cc9565b9450602086013567ffffffffffffffff80821115612e2757600080fd5b612e3389838a01612dc9565b95506040880135915080821115612e4957600080fd5b612e5589838a01612dc9565b94506060880135915080821115612e6b57600080fd5b50612e7888828901612dc9565b95989497509295608001359392505050565b634e487b7160e01b600052602160045260246000fd5b6020810160048310612eb457612eb4612e8a565b91905290565b600080600060608486031215612ecf57600080fd5b612ed884612cc9565b9250612ee660208501612cc9565b9150604084013590509250925092565b6001600160a01b038a16815261ffff8916602082015261012060408201819052600090612f258382018b612c84565b90508281036060840152612f39818a612c84565b90508281036080840152612f4d8189612c84565b9150508560a083015284151560c083015283151560e083015260028310612f7657612f76612e8a565b826101008301529a9950505050505050505050565b803561ffff81168114612ce057600080fd5b60008060008060808587031215612fb357600080fd5b843567ffffffffffffffff80821115612fcb57600080fd5b612fd788838901612dc9565b955060208701359450612fec60408801612f8b565b9350606087013591508082111561300257600080fd5b5061300f87828801612dc9565b91505092959194509250565b60006020828403121561302d57600080fd5b61257c82612f8b565b60a08152600061304960a0830188612c84565b6020830187905261ffff86811660408501528516606084015282810360808401526130748185612c84565b98975050505050505050565b8015158114612c2757600080fd5b600080604083850312156130a157600080fd5b6130aa83612cc9565b915060208301356130ba81613080565b809150509250929050565b600080600080608085870312156130db57600080fd5b6130e485612cc9565b93506130f260208601612cc9565b925060408501359150606085013567ffffffffffffffff81111561311557600080fd5b8501601f8101871361312657600080fd5b61300f87823560208401612d53565b6000806040838503121561314857600080fd5b61315183612cc9565b915061315f60208401612cc9565b90509250929050565b6020808252600e908201526d27b7363c9037b933b0b734bd32b960911b604082015260600190565b600181811c908216806131a457607f821691505b6020821081036131c457634e487b7160e01b600052602260045260246000fd5b50919050565b6040815260008084546131dc81613190565b80604086015260606001808416600081146131fe576001811461321a5761324c565b60ff1985166060890152606084151560051b890101955061324c565b8960005260208060002060005b868110156132425781548b8201870152908401908201613227565b8a01606001975050505b505050506001600160a01b038516602085015250905061257c565b60006020828403121561327957600080fd5b815161257c81613080565b634e487b7160e01b600052601160045260246000fd5b61ffff8181168382160190808211156132b5576132b5613284565b5092915050565b601f8211156113ef576000816000526020600020601f850160051c810160208610156132e55750805b601f850160051c820191505b81811015613304578281556001016132f1565b505050505050565b815167ffffffffffffffff81111561332657613326612d3d565b61333a816133348454613190565b846132bc565b602080601f83116001811461336f57600084156133575750858301515b600019600386901b1c1916600185901b178555613304565b600085815260208120601f198616915b8281101561339e5788860151825594840194600190910190840161337f565b50858210156133bc5787850151600019600388901b60f8161c191681555b5050505050600190811b01905550565b8181036133d7575050565b6133e18254613190565b67ffffffffffffffff8111156133f9576133f9612d3d565b613407816133348454613190565b6000601f82116001811461343b57600083156134235750848201545b600019600385901b1c1916600184901b1784556127e2565b600085815260209020601f19841690600086815260209020845b838110156134755782860154825560019586019590910190602001613455565b50858310156133bc5793015460001960f8600387901b161c19169092555050600190811b01905550565b600061ffff8083168181036134b6576134b6613284565b6001019392505050565b8082018082111561063357610633613284565b61ffff8281168282160390808211156132b5576132b5613284565b60006020828403121561350057600080fd5b5051919050565b60006001820161351957613519613284565b5060010190565b60008351613532818460208801612c60565b835190830190613546818360208801612c60565b01949350505050565b6001600160a01b038581168252841660208201526040810183905260806060820181905260009061358290830184612c84565b9695505050505050565b60006020828403121561359e57600080fd5b815161257c81612c1156fea2646970667358221220e84339b3a609fe013773d969dadc43a4fb2be9816c3804b5fa16d7419ca74da264736f6c63430008180033a2646970667358221220b4e3f9b4788f132171fb5b54dabd52c3d51c3b9f226493cd464a8192cfee386964736f6c63430008180033",
  "linkReferences": {},
  "deployedLinkReferences": {}
}